:03000000020E4F9E
:0C0E4F00787FE4F6D8FD75817B020E96DA
:1012BE00E4FEEEC39F5009E4FD0DBD0AFC0E80F264
:0112CE0022FD
:100EDB000A207468652072656365697665642073A2
:100EEB007472696E67206973000A20696E20696EDF
:100EFB0074000A20696E2065656570000A206461C4
:100F0B00746120696E204550726F6D0020000A20BD
:100F1B00706C6561736520656E746572207465789D
:100F2B0074000A2064656661756C742076616C755B
:100F3B00650073657474696E67206E6577207661E2
:100F4B006C7565000A696E697469616C697A696EA2
:020F5B0067002D
:09133200C112C114C1130118001D
:0512F9001212FED2B646
:0612FE00E4FF0FBF1FFC1E
:0113040022C6
:061344001212F9C2B622EC
:1012970030B602C2B6D2B7D2B61212FEC2B7121217
:0412A700FEC2B622AB
:0D12EC0030B602C2B6C2B71212F9D2B72254
:02119300AE07A5
:10119500E4FDEE339209A20992B7121344EE25E05D
:1011A500FE0DBD08EDD2B71212F9A2B79209C2B66B
:0511B5001212FEA20968
:0111BA002212
:10124600E4FEFD1212F9A2B79209EE25E0FEA2090C
:0C125600E4334206C2B60DBD08E9AF0645
:011262002269
:0B131100C2B71212FE121344D2B72222
:0B131C00D2B71212FE121344D2B62208
:10127E00AC05AB071212977FA0121193AF03121198
:09128E0093AF041211930212EC5B
:02120500AC0734
:101207001212977FA0121193AF0412119312129723
:0F1217007FA1121193121246AE071212ECAF060E
:0112260022A5
:03001300020C4696
:100C4600C0E0C0F0C083C082C0D075D000C000C074
:0D0C560001C002C003C004C005C006C007F5
:100C63007D407F07121263C28BAF187E00121227DA
:100C73001211608F1E74082518F8A61EE51EB453C2
:100C830013751800D213FF12133CAF1E12109E7F70
:100C93004112109EE51EB44404C213C2A7E51864B2
:100CA3000A703A74082518F8E6645470307BFF7AAA
:100CB3000E79DB1212AB75440074082544F8E6FF85
:100CC30012133C0544E544C3940B40ED7BFF7A0EBD
:100CD30079F41212AB120D0D7518008008E51E642D
:0F0CE3005360020518AF1E12133CAF1E12109E75
:100CF200D007D006D005D004D003D002D001D00056
:0B0D0200D0D0D082D083D0F0D0E032FF
:0A132700309807AF99C29812109E8B
:011331002299
:100D0D00E4F546F545E545C3940A50297BFF7A0E77
:100D1D0079FD1212AB74082545F8E6FF74092545D7
:100D2D00F8E6FD120FD474132546F8A607054605FF
:100D3D0045054580D0AD137F0112127E7D0F7F02D8
:100D4D0012127EAD147F0312127E7D0F7F041212DC
:100D5D007EAD157F0512127E7D0F7F0612127EADC0
:100D6D00167F0712127E7D0F7F0812127EAD177F40
:100D7D000912127E7BFF7A0F79071212ABE4F5464A
:100D8D00754501E545C3940A50297BFF7A0F791704
:100D9D001212ABAF4512120574192546F8A6077449
:100DAD00192546F8E6FF7E00121227054605450572
:030DBD004580D09E
:010DC0002210
:100FD400C3EF648094B0400DD3EF648094B950059E
:100FE400EF24D0F547C3EF648094C1400DD3EF6480
:100FF4008094C65005EF24C9F547C3ED648094B0CE
:10100400400DD3ED648094B95005ED24D0F548C368
:10101400ED648094C1400DD3ED648094C65005ED19
:1010240024C9F548E547C454F0F5475347F05348FD
:0F1034000FE5474548F549FF7E00121227AF49E7
:01104300228A
:100B5C001211E27D3BE4FF121263E4FD7F011212DD
:100B6C00637D037F021212637D017F111212637D7C
:100B7C00017F121212637D027F051212637D267FA4
:100B8C00061212637D01E4FF121044C2947FE17ED1
:100B9C00001212DED294C2947FE27E001212DED2D8
:100BAC00947D107F0A1212637D057F0A1210441285
:100BBC0011257D057F0B1210447BFF7A0F791912DA
:100BCC0012ABE4FB7A01EAC3940A5010AF02121282
:100BDC000574192BF8A6070B0A0A80EA20A306D283
:100BEC0080D2128004C280C21230121A2014171242
:100BFC0010EA7BFF7A0F792D1212AB7D057F101254
:100C0C001044D214802520122230141F7B007A004D
:100C1C0079197F10120F5D7BFF7A0F793D1212ABA1
:100C2C007D057F10121044C214D212E51EB4580573
:0A0C3C00301302D2A712132780A282
:1011E2001212CFD290D294C295D296C29775D5D010
:1011F20075A89475B704C2A7D2B37BFF7A0F794F53
:031202000212AB2A
:0C1305000A646174615F696E09000900F0
:021263008D46B6
:10126500EF2420FFC2947E001212DE8F68AF467E07
:08127500001212DE8F69D29411
:01127D00224E
:041044008F238D2445
:10104800E4F525C294F525E525D395245012AF2360
:101058007E001212DE74682525F8A607052580E7AC
:10106800D294E4F525E525D3952450297BFF7A13FE
:1010780079051212ABAF257E001212277BFF7A1377
:10108800790F1212AB74682525F8E6FF7E0012125C
:0510980027052580D0B2
:01109D002230
:10109E008F45C2947FE17E001212DE8F68D294C219
:1010AE00947FA07E001212DE8F68AF457E00121272
:1010BE00DE8F69D294C2907F017E001212BE7D3AFD
:1010CE00E4FF1212637F017E001212BED2907F0ADD
:0C10DE007E001212BE7D3BE4FF02126394
:10116000C2947F617E001212DE8F72E4FFFE1212C3
:10117000DE8F73D2947F0A7E001212BEC2947FE289
:101180007E001212DE8F68D2947F017E001212BEA2
:03119000AF732218
:060F5D008B238A24892584
:100F6300EF2420FFC2947E001212DE8F68AB23AA07
:100F730024A925120DC1FF7E001212DE8F69AB2357
:100F8300AA24A925900001120DDAFF7E001212DEB9
:100F93008F6AAB23AA24A925900002120DDAFF7EE3
:100FA300001212DE8F6BAB23AA24A9259000031233
:100FB3000DDAFF7E001212DE8F6CAB23AA24A92563
:100FC300900004120DDAFF7E001212DE8F6DD294B0
:010FD30022FB
:1010EA007F30C2947E001212DE8F687FE77E001284
:1010FA0012DE8F697FE77E001212DE8F6A7FE77E3B
:10110A00001212DE8F6B7FE77E001212DE8F6C7F79
:0A111A00E77E001212DE8F6DD29402
:0111240022A8
:101125007F2BC2947E001212DE8F687F457E0012EF
:1011350012DE8F697FB17E001212DE8F6A7FB17E6B
:10114500001212DE8F6B7FB17E001212DE8F6C7F74
:0A115500B17E001212DE8F6DD294FD
:01115F00226D
:0E12DE008F86E5AA30E7FBE4F5AAAF86FE2274
:03134A0025640017
:0F12CF00758920758DFD759850D28E75A8902267
:08133C008F993099FDC299223E
:1012AB00120DC1FF600C12133C740129F9E43AFAD8
:0312BB0080EE22A0
:101227007557FF75581375594A8E5A8F5B7B007A2D
:0F12370000794A12085C7B007A00794A0212ABF8
:100E5B00020B5CE493A3F8E493A34003F68001F246
:100E6B0008DFF48029E493A3F85407240CC8C33398
:100E7B00C4540F4420C8834004F456800146F6DF67
:100E8B00E4800B0102040810204080901332E47EB2
:100E9B00019360BCA3FF543F30E509541FFEE4935C
:100EAB00A360010ECF54C025E060A840B8E493A323
:100EBB00FAE493A3F8E493A3C8C582C8CAC583CA4E
:100ECB00F0A3C8C582C8CAC583CADFE9DEE780BE06
:01133B0000B1
:100DC100BB010689828A83E0225002E722BBFE0230
:090DD100E32289828A83E4932263
:100DDA00BB010CE58229F582E5833AF583E02250CE
:100DEA0006E92582F8E622BBFE06E92582F8E22218
:0D0DFA00E58229F582E5833AF583E4932232
:10080000E5632457F8E605632278543010027857E0
:10081000E475F001120E19020DC12009EB7F2ED2F2
:10082000098018EF540F2490D43440D4FF300D0BBE
:10083000EF24BFB41A0050032461FFE56460021581
:10084000640567E5677002056630100D7854E4753D
:10085000F001120E19EF020E070211BB7403D21041
:100860008003E4C210F5638B548A558956E4F5641D
:10087000F566F567E56460077F2012083B80F57533
:1008800065FFC20AC209C20BC20CC20EC20FC2115E
:10089000120809FF700D3010057F0012084CAF6779
:1008A000AE6622B4255FC2D5C20D120809FF24D05E
:1008B000B40A00501A75F00A786430D50508B6FFFE
:1008C0000106C6A426F620D5047002D20C80D924D5
:1008D000CFB41A00EF5004C2E5D20D020A4CD20A7E
:1008E00080C6D20980C0D20B80BCD2D580BAD20ECD
:1008F00080B47F2012083B200B077401B5640040D0
:10090000F1120800FF12083B020874D211D20F80C6
:1009100095120800FB120800FA120800F94A4B7001
:1009200006791D7A0B7BFF200B2EE564602A7E0082
:100930008E82758300120DDA60060EEE656570F02A
:10094000C2D5EBC0E0EAC0E0E9C0E0EE120A93D005
:10095000E0F9D0E0FAD0E0FB120DC1FF60AAEBC0D5
:10096000E0EAC0E0E9C0E012083BD0E02401F9D0A1
:10097000E03400FAD0E0FBE5650460DCD565D980A1
:10098000877BFF7A0A798FD20B809C79108002795D
:1009900008C20FC2118008D2D5790A8004790AC230
:1009A000D5E565047002F565E4FAFDFEFF12080066
:1009B000FC7B08200A13120800FD7B1030090A1284
:1009C0000800FE120800FF7B20EC3382D592D55040
:1009D00013C3E43009069FFFE49EFEE4200A039D52
:1009E000FDE49CFCE4CBF8C20AEC700CCFCECDCC7D
:1009F000E824F8F870F38017C3EF33FFEE33FEED11
:100A000033FDEC33FCEB33FB994002FB0FD8E9EBF1
:100A1000300A05F8D0E0C448B20AC0E00AEC4D4EF6
:100A20004F78207B0070C2EAB5650040BCC0E01280
:100A30000A95D0F0D0E0200A04C4C0E0C4B20AC0D5
:100A4000F0120824D0F0D5F0EB020874120E290938
:100A50001153098B5808E24C08DE42098F4F099761
:0F0A60004409974908F743099D550981460981C3
:100A6F00450981470B3D5008E62D08EA2E090D2B4D
:100A7F0008EE23090B200B262A08A64800000905BB
:100A8F003F3F3F00790AA2D5200C14300E09B91050
:100A9F00020404B9080104A2D5200F02500104205A
:100AAF000B68920BB564005034C0E07F20300C19F6
:100ABF007F30A20B720F720E500F120AECC20BC2D4
:100ACF000FC20EC2117F30800F300E03E9C0E0124B
:100ADF00083B300E03D0E0F9D0E0B564CC300E17F0
:100AEF007F30B9100C12083B7F58300D077F78808C
:100AFF0003B9080312083B300B057F2D02083B7F1B
:100B0F00202011F87F2B200FF322920B80CF286E1D
:100B1F00756C6C2900D20A120800300AF8C20A78E4
:100B2F006430D50108F60208A62D50434958120823
:100B3F00002403B405004001E4900B389312082CF5
:0D0B4F00743A12082CD20C75640402098B54
:100E0700BB010689828A83F0225002F722BBFE01CA
:020E1700F322C4
:100E1900FAE6FB0808E6F925F0F618E6CA3AF622DA
:100E2900D083D082F8E4937012740193700DA3A358
:100E390093F8740193F5828883E47374029368606C
:060E4900EFA3A3A380DF6C
:1011BB00EFB40A07740D1211C6740A309811A8996E
:1011CB00B8130CC2983098FDA899C298B811F63094
:0711DB0099FDC299F599226C
:00000001FF
