:100000000C9428010C9450010C9450010C94500154
:100010000C9450010C9450010C9450010C9450011C
:100020000C9450010C9450010C9450010C9450010C
:100030000C9450010C9450010C9450010C945001FC
:100040000C94CB090C9450010C9450010C94500169
:100050000C9450010C9450010C9450010C945001DC
:100060000C9450010C945001000005072060000022
:1000700000000000005F00000007000700147F146C
:100080007F14242A7F2A12231308646236495522DA
:10009000500005030000001C2241000041221C000A
:1000A000082A1C2A0808083E0808005030000008EA
:1000B00008080808006060000020100804023E5193
:1000C00049453E00427F4000426151494621414539
:1000D0004B311814127F1027454545393C4A494990
:1000E0003001710905033649494936064949291E37
:1000F0000036360000005636000000081422411475
:100100001414141441221408000201510906324942
:1001100079413E7E1111117E7F494949363E414168
:1001200041227F4141221C7F494949417F09090100
:10013000013E414151327F0808087F00417F410064
:100140002040413F017F081422417F404040407FD2
:100150000204027F7F0408107F3E4141413E7F0937
:100160000909063E4151215E7F0919294646494940
:10017000493101017F01013F4040403F1F204020A5
:100180001F7F2018207F631408146303047804037E
:10019000615149454300007F41410204081020415C
:1001A000417F000004020102044040404040000141
:1001B00002040020545454787F484444383844445E
:1001C0004420384444487F3854545418087E090168
:1001D00002081454543C7F0804047800447D400015
:1001E0002040443D00007F10284400417F40007CB7
:1001F000041804787C0804047838444444387C1497
:10020000141408081414187C7C0804040848545476
:100210005420043F4440203C4040207C1C2040208F
:100220001C3C4030403C44281028440C5050503C6A
:100230004464544C44000836410000007F00000034
:100240004136080008082A1C08081C2A08089F01D3
:1002500011241FBECFEFD8E0DEBFCDBF11E0A0E07C
:10026000B1E0E8E0F8E102C005900D92AC32B107D0
:10027000D9F711E0ACE2B1E001C01D92A934B10799
:10028000E1F712E0C0E5D2E004C02297FE010E942F
:10029000FE0BCE34D107C9F70E94B50A0C94020CAC
:1002A0000C9400000F931F930CE211E0C80161E071
:1002B00041E00E9468040E94130A28EE33E040E007
:1002C00050E00E94DA0BC801BA01A9012AE030E02F
:1002D0000E94950B1F910F9108950F931F930CE2AD
:1002E00011E0C80160E00E948D01C80168E670E07D
:1002F0004FEF2AE831E00E949504C8016BE040E02E
:100300000E946804C80160E071E00E94F30A1F9136
:100310000F910895FC01849108950E94EB030895C4
:100320000F931F938C010E94B40982E191E0F801C0
:1003300091838083109239011F910F9108958CE26F
:1003400091E00E9490010895FC018CE191E091837D
:1003500080830895613019F44098419A02C0409A10
:10036000419884B1807F84B98AB18F708AB985B190
:100370008F6085B98BB1806F8BB94398429A449A4C
:10038000C89500C093B189B14498807F9F70892B34
:100390000895613019F44098419A02C0409A4198FA
:1003A00084B1807F84B98AB18F708AB94398429AA8
:1003B000449AC89500C04F99FECF44980895609123
:1003C0003A0162956695669563700E94C901439AE9
:1003D000429A00C0449AC89500C093B189B144982C
:1003E000807F9F70892B08951F93162F642F0E9482
:1003F000C9014398429884B18F6084B98AB1806FF3
:100400008AB985B1912F9F70807F982B95B98BB158
:10041000107F8F70812B8BB900C0449AC895C89506
:10042000000044981F9108950F931F93CF93DF937B
:10043000EC01162F80913A01681721F480913B015D
:10044000481729F117FD23C0403408F510933A01ED
:1004500040933B01012F0295069506950370642F8A
:10046000669566956695E02FF0E0E45CFE4F80812E
:10047000681731F06083686BCE01402F0E94F40151
:100480001F731064CE01612F402F0E94F401DF9191
:10049000CF911F910F9108950F931F93CF93DF93E7
:1004A000EC0100913A0107FF02C010E013C00E9466
:1004B000DF01CE010E94DF01182F809139018111E7
:1004C00010958FEF80933A01CE01602F40913B0150
:1004D0000E941402812FDF91CF911F910F910895F7
:1004E000BF92CF92DF92EF92FF920F931F93CF9321
:1004F000DF93EC01062F60913A0167FDBBC0B62E79
:10050000B294B694B69483E0B822F0903B0187E0B1
:10051000F82209F478C0CE010E944C02182FCE01B7
:100520006B2D0E94C901439A429884B18F6084B9AF
:100530008AB1806F8AB900C0449AC02EDD24EF2CA6
:10054000FF24C6010E2C02C0880F991F0A94E2F7FF
:10055000182B809139018111109585B1912F9F70D1
:10056000807F982B95B98BB1107F8F70182B1BB99A
:10057000C895C8950000449800913B01802F90E0F9
:100580000896887F803491050CF037C0402F485F73
:10059000487FCE0160913A010E941402CE010E9470
:1005A0004C02182FCE016B2D0E94C901439A42982C
:1005B00084B18F6084B98AB1806F8AB900C0449ACF
:1005C00088E090E08E199F0902C0D594C7948A955F
:1005D000E2F71C29809139018111109585B1912F85
:1005E0009F70807F982B95B98BB1107F8F70182BDF
:1005F0001BB9C895C8950000449860913A016F5F97
:10060000CE01402F35C0CE016B2D0E94C901439A07
:10061000429884B18F6084B98AB1806F8AB9809121
:1006200039018111009500C0449A85B1902F9F70C7
:10063000807F982B95B98BB1007F8F70802B8BB901
:10064000C895C8950000449860913A016F5F609327
:100650003A01862F82958695869583708B1551F089
:1006600067FD08C08FEF80933A01CE0140913B01B6
:100670000E941402DF91CF911F910F91FF90EF9094
:10068000DF90CF90BF9008957F928F929F92AF920C
:10069000BF92CF92DF92EF92FF920F931F93CF936F
:1006A000DF93EC01962E7E2C81E0C82EC41AC00E7A
:1006B000A82EA61AA20E542F5770D42ED51AEC2CA1
:1006C000FF24652F70E028E030E0C901861B970BFE
:1006D000E816F9065CF42E193F098FEF90E002C08E
:1006E000959587952A95E2F71C2D03C018E0151BF8
:1006F0008FEF90E002C0880F991F6A95E2F7B82E3D
:10070000CE01692D4D2D0E94140200E08B2C8094A7
:100710000FC0CE010E944C029FEF791619F4682F8A
:100720006B2902C0682F6821CE010E9470020F5F02
:100730000A1578F311C088E0D80ECE01692D4D2D31
:100740000E94140200E005C0CE01672D0E947002D5
:100750000F5F0A15C8F3185F212F30E0C901079613
:100760008E159F0544F31C1538F5E21AF30A8FEF36
:1007700090E002C0880F991FEA94E2F7082F0095D5
:1007800098E0D90ECE01692D4D2D0E94140210E083
:10079000F02EF0940FC0CE010E944C029FEF79160C
:1007A00019F4682F602B02C0682F6F21CE010E94C0
:1007B00070021F5F1A1578F3DF91CF911F910F918F
:1007C000FF90EF90DF90CF90BF90AF909F908F9071
:1007D0007F9008950895EF92FF920F931F93CF9308
:1007E000DF93EC013B9A3A9A3C9A4498389A4098A5
:1007F000399A4198439842988FEF80933A018093B9
:100800003B016093390162E370E080E090E00E9478
:10081000210A9CE3E92E91E0F92E00E01FEFCE01C2
:10082000602F0E94AA0184FF03C022E030E024C0B0
:1008300087FF03C021E030E01FC0F70111937F0163
:10084000CE016FE3402F0E94F401CE0160EC402FF7
:100850000E94F4010F5F023011F7CE0160E040E02A
:100860002FE70FE3EE240E944403CE0160E040E056
:100870000E94140220E030E0C901DF91CF911F9166
:100880000F91FF90EF900895EF920F93FC01621784
:1008900050F4401740F467FD06C0403420F427FDB3
:1008A00002C007FF09C0158216828FE787838FE396
:1008B0008087118680E006C0658346832783008792
:1008C000E18681E06287438714860F91EF90089557
:1008D0000F931F93CF93DF93EC01162F042F8B817F
:1008E0009C810097E9F0E0913E01F0913F01029672
:1008F00009958F5F819F802D11249D81890F8A87A3
:100900008B819C81E0913E01F0913F010396099516
:100910008F5F809F802D11249E81890F8B871C867D
:10092000DF91CF911F910F910895FC017483638330
:1009300030933F0120933E01428308952F923F92CE
:100940004F925F926F927F928F929F92AF92BF92DF
:10095000CF92DF92EF92FF920F931F93DF93CF938B
:1009600000D000D00F92CDB7DEB7F82ED92E542E7E
:10097000222EA02E7E2C3C2C202F30E0842F90E0C5
:100980008E0D911D28173907F4F0277030702F5FF6
:100990003F4F81E090E002C0880F991F2A95E2F74F
:1009A000282F21952983B62E302F387F3A83402E69
:1009B0004E18842D887F8B8381E0882E912C6624AD
:1009C00063946E18B5C08F2D9D2D222DEC2C0E94A6
:1009D0004403B1C08F2D9D2D6B2D4A810E941402BE
:1009E0008F2D9D2D0E944C0209810823142D8F2DDF
:1009F0009D2D6B2D4B810E9414028F2D9D2D0E94E9
:100A00004C02E82ECA2C3BC08E2D90E0212F27707F
:100A100002C0959587952A95E2F780FF09C08C2D35
:100A20008770F40102C0EE0FFF1F8A95E2F70E2BCC
:100A30008C2D90E087709070892B69F44C2D487F45
:100A40008F2D9D2D6B2D0E9414028F2D9D2D602FBB
:100A50000E94700200E0CA94112399F01150812F76
:100A60008770873061F4412F487F8F2D9D2D6B2D2E
:100A70000E9414028F2D9D2D0E944C02E82E151508
:100A800018F61C2DE72C2FC0812F90E0FFEF3F16AA
:100A900051F487709070940102C0220F331F8A9521
:100AA000E2F7022B0BC087709070F40102C0EE0FCA
:100AB000FF1F8A95E2F7CF0180950823812F90E0F0
:100AC00087709070892B69F4412F487F8F2D9D2D61
:100AD0006B2D0E9414028F2D9D2D602F0E9470029D
:100AE00000E01150EA94EE2079F6462D4C0D242FAB
:100AF00030E0277030703D832C83232BC1F0487F7A
:100B00008F2D9D2D6B2D0E9414028F2D9D2D0E94E7
:100B10004C02B4010C8002C0660F771F0A94E2F702
:100B200061506823602B8F2D9D2D0E947002B3941D
:100B30002B1408F04FCF0F900F900F900F900F9045
:100B4000CF91DF911F910F91FF90EF90DF90CF90A9
:100B5000BF90AF909F908F907F906F905F904F90DD
:100B60003F902F9008952F923F924F925F926F92F5
:100B70007F928F929F92AF92BF92CF92DF92EF922D
:100B8000FF920F931F93DF93CF9300D0CDB7DEB7C3
:100B9000F82ED92EA42E322E602E7E2C4C2C50E016
:100BA0009A012E0D311D802F90E082179307CCF013
:100BB0004770507081E090E002C0880F991F4A95FD
:100BC000E2F7282F21502983E62E3A2D387F3A83E9
:100BD000572C5A0C28EF222E252091E0892E912C9B
:100BE000B3C08F2D9D2D4A2D232DEC2C0E94440344
:100BF000AEC08F2D9D2D6E2D4A810E9414028F2D27
:100C00009D2D0E944C02C980C822052D8F2D9D2D3F
:100C10006E2D422D0E9414028F2D9D2D0E944C029C
:100C2000B82E1A2D3BC08B2D90E0202F277002C0CC
:100C3000959587952A95E2F780FF09C0812F8770E7
:100C4000F40102C0EE0FFF1F8A95E2F7CE2A0F5F74
:100C5000802F90E087709070892B71F4003460F4DD
:100C6000402F487F8F2D9D2D6E2D0E9414028F2DB9
:100C70009D2D0E944C02B82E812F8770873069F419
:100C8000412F487F8F2D9D2D6E2D0E9414028F2D98
:100C90009D2D6C2D0E947002CC241F5F601618F6EB
:100CA000B12E072D2DC0812F90E0FFEF4F1651F48C
:100CB00087709070940102C0220F331F8A95E2F76B
:100CC000C22A0BC087709070F40102C0EE0FFF1FA4
:100CD0008A95E2F7CF018095C822812F87708730EF
:100CE00069F4412F487F8F2D9D2D6E2D0E94140297
:100CF0008F2D9D2D6C2D0E947002CC241F5F015002
:100D0000002389F64B2D470D042F10E0077010705B
:100D100001151105C1F04150487F8F2D9D2D6E2D7D
:100D20000E9414028F2D9D2D0E944C02B40102C01E
:100D3000660F771F0A95E2F7619568236C298F2D5E
:100D40009D2D0E947002E3943E1408F052CF0F9044
:100D50000F90CF91DF911F910F91FF90EF90DF9057
:100D6000CF90BF90AF909F908F907F906F905F904B
:100D70004F903F902F900895CF92EF920F931F9333
:100D8000CF93DF93EC016A3009F070C08B819C81B6
:100D9000E0913E01F0913F0103960995182F6A8575
:100DA0002F81621768F44B858A818F3F11F03FEFE6
:100DB00001C030E0012F040FCE01E32E0E94440356
:100DC0008985EB84212F30E0882341F5F901EE0F6E
:100DD000FF1F08859F012E0D311D802F90E02817E1
:100DE0003907C4F08C85882351F16D814E812F81A4
:100DF0008A818F3F11F03FEF01C030E0E394E01AA9
:100E0000EE0ECE01C32E0E94B3058D818A878885A0
:100E1000811B2BC08D818A87E3940BC04E818E2D60
:100E200090E0240F311D2817390734F48D818A870B
:100E30001095E10EEB861AC08C85882319F481E0A9
:100E40008C8714C06D812F8108858A818F3F11F0B6
:100E50003FEF01C030E0E394E41AE10ECE01C32E6F
:100E60000E949E048D818A878E818B87DF91CF912E
:100E70001F910F91EF90CF9008952F923F924F9234
:100E80005F926F927F928F929F92AF92BF92CF921A
:100E9000DF92EF92FF920F931F93DF93CF93CDB723
:100EA000DEB76A970FB6F894DEBF0FBECDBF7C01E8
:100EB000062FDC0113968D919C911497009709F4ED
:100EC0002DC2603220F4C7010E94BC0624C2E0910A
:100ED0003E01F0913F01039609958E83F7018381CE
:100EE0009481E0913E01F0913F0104960995182FFD
:100EF000D70113968D919C911497E0913E01F0914A
:100F00003F0105960995A82E011708F407C2202F66
:100F100030E0812F90E08A0D911D281739070CF0E1
:100F2000FDC1FE81EF2FF0E0F987E887CF0107963A
:100F300063E0959587956A95E1F7C82EB02EB11AB2
:100F4000E0913E01F0913F01D70113968D919C9164
:100F500014970995882309F0FDC1F70183819481D5
:100F6000E0913E01F0913F0101960995882309F037
:100F7000F1C1D70113968D919C911497E0913E0198
:100F8000F0913F01029609958F83CB9C900111242B
:100F900090E0289F6001299FD00C389FD00C11242D
:100FA000E6E0F0E0CE0EDF1E1D8230C0C901880DE4
:100FB000991D0995080F111DD3940894811C911C4B
:100FC000D70113962D913C911497E0913E01F09139
:100FD0003F01DB1458F38C2D90E0AC01049FC0015D
:100FE000059F900D149F900D1124CA2CDD2466E0FE
:100FF00070E0C60ED71EC80ED91E8B2D90E0069647
:10100000820F931F09958F8371E07D83D7011C9612
:101010008C91882331F0C7016AE00E943D07F701F7
:1010200014863F81232F30E03A832983D7011A9613
:101030008C911A97280F311D17968C9190E082178A
:1010400093077CF4C7016AE00E943D07F70184859D
:10105000882339F0C7016AE00E943D07D7011C963A
:101060001C92BE81BF5FBC83EA86FB86772488859D
:1010700099858770907058E0252E312C281A390AEE
:10108000F6012F81E20FF11DFE8BED8B4B2F50E00F
:10109000588F4F8B34C1D7011B966C901B97670CF0
:1010A000462D487F8A859B851A966C910E94140272
:1010B000872D86958695869590E0E981FA818E9FA9
:1010C000A0018F9F500D9E9F500D11242A014C0CA2
:1010D0005D1C1B82272D30E0C901887F68857985DA
:1010E000681B790B7F876E87A62CBB24A22AB32AA4
:1010F00077E0A722BB24862D8770888BAD89BE89B7
:10110000A40FB51FBA8BA98BEF89F88DE21BF30BE7
:10111000FC8BEB8BA4C0FE817F1610F010E01CC08E
:10112000D70113968D919C911497E0913E01F09117
:101130003F01840D951D0995182FBD81BB2361F0DA
:10114000EE85FF85389744F490E0022C02C0959517
:1011500087950A94E2F7182FD70112968C9188236D
:1011600009F41095A114B10441F4EB89FC89389776
:1011700024F08A859B85612F6AC08A859B850E94A1
:101180004C02982E0889872C29893A894B81240F93
:10119000311D3D872C87682D70E07A8F698F9B0108
:1011A00027703070812F90E0022E02C095958795B0
:1011B0000A94E2F780FF0AC081E090E0002E02C0AE
:1011C000880F991F0A94E2F7982A0AC081E090E0FC
:1011D000002E02C0880F991F0A94E2F7809598228A
:1011E0002730310549F5D70113968D919C911497BD
:1011F000E0913E01F0913F012C853D85820F931FC8
:101200000995182F3D81332389F088859985498D6B
:101210005A8D841B950B08974CF4812F90E0022C7B
:1012200002C0959587950A94E2F7182FD701129678
:101230008C91882309F410950F5F083029F083946E
:10124000BC818B1608F4A7CF8A859B85692D0E94E7
:101250007002EB81EF5FEB830894411C511CFB8112
:101260002F81F21708F457CF062D10E00770107089
:101270000115110531F48F89988D87199109089707
:1012800074F58A859B850E944C02282F0115110553
:1012900011F460E009C081E090E002C0880F991F5E
:1012A0000A95E2F7682F61508F89988D8719910907
:1012B0008830910554F441E050E002C0440F551FBE
:1012C0008A95E2F7CA018195682BD70112968C9115
:1012D000882319F46095622B09C0622307C0F701C7
:1012E0008281882311F060E001C06FEF8A859B85C1
:1012F0000E947002F7E06F2288E08619780E2C8138
:10130000721608F4C8CED7011A968C918F5FBF81F0
:101310008B0FF701828721E030E002C020E030E04F
:10132000C9016A960FB6F894DEBF0FBECDBFCF914C
:10133000DF911F910F91FF90EF90DF90CF90BF90C2
:10134000AF909F908F907F906F905F904F903F9065
:101350002F90089500E010E0DD2446E0842E912CCB
:101360002FCE0E943D070895EF920F931F938C019B
:101370000E94A40186E291E0F80191838083C80174
:1013800060E040E02FE70FE3EE240E9444041F9149
:101390000F91EF9008951F920F920FB60F921124A4
:1013A0002F933F938F939F93AF93BF93809144016B
:1013B00090914501A0914601B091470130914801BB
:1013C0000196A11DB11D232F2D5F2D3720F02D5724
:1013D0000196A11DB11D2093480180934401909373
:1013E0004501A0934601B09347018091400190913F
:1013F0004101A0914201B09143010196A11DB11D8F
:101400008093400190934101A0934201B093430126
:10141000BF91AF919F918F913F912F910F900FBEF0
:101420000F901F9018958FB7F89420914401309138
:10143000450140914601509147018FBFB901CA0152
:1014400008959B01AC017FB7F89480914001909181
:101450004101A0914201B091430166B5A89B05C02E
:101460006F3F19F00196A11DB11D7FBFBA2FA92FA3
:10147000982F8827860F911DA11DB11D62E0880F4E
:10148000991FAA1FBB1F6A95D1F7BC012DC0FFB7DA
:10149000F8948091400190914101A0914201B09156
:1014A0004301E6B5A89B05C0EF3F19F00196A11DC9
:1014B000B11DFFBFBA2FA92F982F88278E0F911D1E
:1014C000A11DB11DE2E0880F991FAA1FBB1FEA955D
:1014D000D1F7861B970B885E9340C8F221503040AD
:1014E0004040504068517C4F211531054105510560
:1014F00071F60895789484B5826084BD84B5816066
:1015000084BD85B5826085BD85B5816085BDEEE60B
:10151000F0E0808181608083E1E8F0E010828081EA
:1015200082608083808181608083E0E8F0E0808158
:1015300081608083E1EBF0E0808184608083E0EB78
:10154000F0E0808181608083EAE7F0E08081846060
:1015500080838081826080838081816080838081BC
:10156000806880831092C10008950E947A0A0E94C8
:101570006D010E945201FDCF0F931F93CF93DF9314
:101580008C01EB0109C02196D801ED91FC910190ED
:10159000F081E02DC801099568816623A1F7DF91EC
:1015A000CF911F910F910895EF92FF920F931F9388
:1015B000CF93DF938C017B01EA010CC0D7016D91C1
:1015C0007D01D801ED91FC910190F081E02DC801E1
:1015D00009952197209791F7DF91CF911F910F9156
:1015E000FF90EF900895DC01ED91FC910280F38172
:1015F000E02D099508952F923F924F925F926F923E
:101600007F928F929F92AF92BF92CF92DF92EF9292
:10161000FF920F931F93DF93CF93CDB7DEB7A097C1
:101620000FB6F894DEBF0FBECDBF1C016A017B016F
:10163000411551056105710549F440E350E060E052
:1016400070E020E030E00E94A40B56C0882499246A
:101650005401422E55246624772401E010E00C0F3B
:101660001D1F080D191DC701B601A30192010E949B
:10167000DA0BF80160830894811C911CA11CB11C39
:10168000C701B601A30192010E94DA0BC901DA0178
:101690006C017D01C114D104E104F104F1F681E093
:1016A000E82EF12CEC0EFD1EE80CF91C3E0108940E
:1016B000611C711CD501C4010197A109B1096C011C
:1016C000C818D90816C0F601EE0DFF1D40814A303A
:1016D00010F4405D01C0495C552747FD5095652FCA
:1016E000752FC10120E030E00E94A40B0894E108AE
:1016F000F1086E147F0439F7A0960FB6F894DEBF98
:101700000FBECDBFCF91DF911F910F91FF90EF9052
:10171000DF90CF90BF90AF909F908F907F906F9011
:101720005F904F903F902F900895DC012115310577
:1017300041F4ED91FC910190F081E02D642F099529
:1017400008950E94FB0A0895EF92FF920F931F9352
:10175000CF93DF93EC017A018B012115310541F420
:10176000E881F9810190F081E02D642F09951BC07B
:101770002A303105B1F477FF10C04DE250E060E04F
:1017800070E020E030E00E94A40B10950095F094EA
:10179000E094E11CF11C011D111DCE01B801A7014F
:1017A0002AE00E94FB0ADF91CF911F910F91FF90D9
:1017B000EF900895A1E21A2EAA1BBB1BFD010DC0DC
:1017C000AA1FBB1FEE1FFF1FA217B307E407F507F1
:1017D00020F0A21BB30BE40BF50B661F771F881FCD
:1017E000991F1A9469F760957095809590959B0163
:1017F000AC01BD01CF010895EE0FFF1F0590F491DC
:08180000E02D0994F894FFCFDC
:1018080068656C6C6F2C20776F726C642100000027
:101818000000B109BC0AD40A00000000EA03BC0AAF
:0C182800D40A00000000B109BC0AD40A78
:00000001FF
