:100000000C9415090C943D090C943D090C943D0980
:100010000C943D090C943D090C943D090C943D0948
:100020000C943D090C943D090C943D090C943D0938
:100030000C943D090C943D090C943D090C943D0928
:100040000C940F130C943D090C94EB130C943D0984
:100050000C943D090C943D090C943D090C943D0908
:100060000C943D090C943D09374900000000000044
:100070000000000000000000000080C00000C0E0A0
:1000800030100838000000000000000000000000F0
:100090000000000000000000000000000000000060
:1000A00000000000C0E0F0000878E4020236F10031
:1000B0000001FE000000FF0000008E0000000000B4
:1000C0000000000000000000000000000000000030
:1000D00000000000000000000000000FFEDF3E30C6
:1000E000303F2220303F13100C0F0C04030100C0DE
:1000F00030070000000000000000000000000000C9
:1001000000000000000000000000000000000000EF
:1001100000000000071EF8F80000000000000000CA
:1001200000000018040301000000000000000000AF
:1001300000000000000000000000000000000000BF
:10014000000000000000000000000000041F382034
:100150004040404040202010080300000000000004
:10016000000000000000000000000000000000008F
:10017000000000000000000000000000000000007F
:10018000000000000000000000000000000000006F
:10019000000000000000000000000000000000005F
:1001A000000000000000000000000000000000004F
:1001B000000000000000000000000000000000003F
:1001C000000000000000000000000000000000002F
:1001D000000000000000000000000000000000001F
:1001E000000000000000000000000000000000000F
:1001F00000000000000000000000000000000000FF
:1002000000000000000000000000000000000000EE
:1002100000000000000000000000000000000000DE
:1002200000000000000000000000000000000000CE
:1002300000000000000000000000000000000000BE
:1002400000000000000000000000000000000000AE
:10025000000000000000000000000000000000009E
:10026000000000000000000000000000000000008E
:10027000000000000000000000000000000000007E
:10028000000000000000000000000000000000006E
:100290003749000000000000000080C04040701896
:1002A00008E0E00060C00000000000000000000066
:1002B000000000000000000000000000000000003E
:1002C0000000000000000000000000000000E0202E
:1002D00020F5000000FF0000017F000007FC000087
:1002E000000000000000000000000000000000000E
:1002F00000000000000000000000000000000000FE
:10030000000000003CFE00006F0000001F008000A5
:10031000030F80808007B000000000000000000094
:1003200000000000000000000000000000000000CD
:10033000000000000000000000000000FF000000BE
:10034000000000060C0C18F07070E0800001060838
:10035000200000000000000000000000000000007D
:10036000000000000000000000000000000000008D
:100370000000003FF08000000000000000000100CD
:10038000000000000080C01F00000000000000000E
:10039000000000000000000000000000000000005D
:1003A00000000000000000000000000001FE3C0012
:1003B000000000000000000000807807010000003D
:1003C000000000000000000000000000000000002D
:1003D000000000000000000000000000000000001D
:1003E000000000030F0C10101010101010000C046F
:1003F00003000000000000000000000000000000FA
:1004000000000000000000000000000000000000EC
:1004100000000000000000000000000000000000DC
:1004200000000000000000000000000000000000CC
:1004300000000000000000000000000000000000BC
:1004400000000000000000000000000000000000AC
:10045000000000000000000000000000000000009C
:10046000000000000000000000000000000000008C
:10047000000000000000000000000000000000007C
:10048000000000000000000000000000000000006C
:10049000000000000000000000000000000000005C
:1004A000000000000000000000000000000000004C
:1004B00000000000000000003749000000000000BC
:1004C00000000000000000000080808000000000AC
:1004D000000000000000000000000000000000001C
:1004E000000000000000000000000000000000000C
:1004F000000000000000E07008C8CC02003060C3BB
:10050000840010E1C3828A60604060000000000047
:1005100000000000000000000000000000000000DB
:100520000000000000000000000000F81F010000B3
:100530000101010002010000010100003F800000F4
:10054000008080000000008000000000000000002B
:10055000000000000000000000000000000000009B
:1005600000001FFEC08000000000000000800000AE
:1005700000000000809D0F47212010080E0201009E
:10058000000000000000000000000000000000006B
:100590000000000000000000000000FFFB00000061
:1005A00000000100000000000C020101000000003A
:1005B000000000000000000000000000000000003B
:1005C000000000000000000000000000000000002B
:1005D000000001070C08100030301010080C060055
:1005E000000000000000000000000000000000000B
:1005F00000000000000000000000000000000000FB
:1006000000000000000000000000000000000000EA
:1006100000000000000000000000000000000000DA
:1006200000000000000000000000000000000000CA
:1006300000000000000000000000000000000000BA
:1006400000000000000000000000000000000000AA
:10065000000000000000000000000000000000009A
:10066000000000000000000000000000000000008A
:10067000000000000000000000000000000000007A
:10068000000000000000000000000000000000006A
:10069000000000000000000000000000000000005A
:1006A000000000000000000000000000000000004A
:1006B000000000000000000000000000000000003A
:1006C000000000000000000000000000000000002A
:1006D000000000000000000000000000000000001A
:1006E000374900000000000000000000000000008A
:1006F00000E0F80810F0000000000000000000001A
:1007000000000000000000000000000000000000E9
:1007100000000000000000000000000000000000D9
:100720000000000080000080FF070080FF00000044
:1007300000000000000000000000000000000000B9
:1007400000000000000000000000000000000000A9
:1007500000000000E03088C26060438084B06041E7
:10076000821C60C1820C300000000000000000000C
:100770000000000000000000000000000000000079
:1007800000000000000000000000FFFF1800000053
:1007900000000000000000000080C7FC000001868F
:1007A0000800000000000000000000000000000041
:1007B0000000000000000000000000000000000039
:1007C00000031FF0FC000000000000000300008395
:1007D000410120100C060300000000000000000092
:1007E0000000000000000000000000000000000009
:1007F000000000000000000000003F238000000017
:100800000000000080803F000000000000000000A9
:1008100000000000000000000000000000000000D8
:1008200000000000000000000000000000000000C8
:1008300000000000010102020203010000000000AC
:1008400000000000000000000000000000000000A8
:100850000000000000000000000000000000000098
:100860000000000000000000000000000000000088
:100870000000000000000000000000000000000078
:100880000000000000000000000000000000000068
:100890000000000000000000000000000000000058
:1008A0000000000000000000000000000000000048
:1008B0000000000000000000000000000000000038
:1008C0000000000000000000000000000000000028
:1008D0000000000000000000000000000000000018
:1008E0000000000000000000000000000000000008
:1008F00000000000000000000000000000000000F8
:100900000000000000000000374900000000000067
:1009100080406000E01008089060001030C00000C7
:1009200000000000000000000000000000000000C7
:1009300000000000000000000000000000000000B7
:1009400000001038E4820F38E04080CF30200007EC
:100950003C20203E4700380000000000000000005E
:100960000000000000000000000000000000000087
:100970000000000000000000000000FEFF01000079
:1009800000000107060C7C3C1C1800000000031846
:100990000000000000000000000000000000000057
:1009A0000000000000000000000000000000000047
:1009B0000000010F38E0C00000000000000000004F
:1009C0000000000080201F00000000000000000068
:1009D0000000000000000000000000000000000017
:1009E00000000000000000000000000000FF8F0079
:1009F00000000000000000000000FF0000000000F8
:100A000000000000000000000000000000000000E6
:100A100000000000000000000000000000000000D6
:100A20000000000001010408080010100808040676
:100A300001000000000000000000000000000000B5
:100A400000000000000000000000000000000000A6
:100A50000000000000000000000000000000000096
:100A60000000000000000000000000000000000086
:100A70000000000000000000000000000000000076
:100A80000000000000000000000000000000000066
:100A90000000000000000000000000000000000056
:100AA0000000000000000000000000000000000046
:100AB0000000000000000000000000000000000036
:100AC0000000000000000000000000000000000026
:100AD0000000000000000000000000000000000016
:100AE0000000000000000000000000000000000006
:100AF00000000000000000000000000000000000F6
:100B000000000000000000000000000000000000E5
:100B100000000000000000000000000000000000D5
:100B200000000000000000000000000000000000C5
:100B3000443600000000000000000000000000003B
:100B400000000000000000000000000000000000A5
:100B50000000000000000000000000000000000095
:100B60000000000000008080000000000000000085
:100B70000000000000000000000000000000000075
:100B80000000000000000000808000000000000065
:100B90000000000000000000000000000000000055
:100BA00000000000000000009EFF0000FE000000AA
:100BB000000000000000000000000000000000C075
:100BC00010C808FC027E0200FE02C23F0082FF182D
:100BD0000000E010C8081CE2027E9FA3E225010A83
:100BE000E0000000F00824C40EF2011F0100FB0029
:100BF00001FCC040602030109050600000000000F8
:100C00000000000738408101031A31010000E03084
:100C10001C07010000000F30C00102031E2201006A
:100C2000C0201008070000000F38C08001011F22FB
:100C3000010281406020100804020201000000004F
:100C4000000000000000008080800F88888888886D
:100C5000880C0780800000008080000007888808DA
:100C6000888888880700000000808080000007894D
:100C70008888880808888F808080000000808080B5
:100C800080800000000000000002676D6D391001D7
:100C9000017F7F0101703F1B1F3E70007F7F070EA9
:100CA000387F7F007F7F6161333F0C607E1F131FA1
:100CB0007C60007F7F093F77023F7F6171693F1E43
:100CC0002167676D7D390000000000000000000012
:100CD0000000000000000000000000000000000014
:100CE0000000000000000000000000000000000004
:100CF00000000000000000000000000000000000F4
:100D000000000000000000000000000000002216AB
:100D1000FEFFFFFFFE7F3D1C3C3C78F0F8FFFFFF2D
:100D2000C7C3830363F3D3FF7F7FFFFFFFFFFFFC96
:100D3000FFFFFFFFFFFFFFFEFAF8F8FCFCFFFFFFDD
:100D4000FFFFF3F37B78F8E864243838E8EFFFFF1F
:100D5000FFFFFFFF3F3F3F3F3F3F3F3F3F3F070F0B
:100D60003F3F3F3F3F3F3F3E3C3C3E3E3E3F3F3F9D
:100D70003F3F3F3F3F3F1E6C0A0E206000010308CB
:100D8000070A080103030507010401040603060618
:100D90000706060606060101060606060D090708EF
:100DA00008070709070105080709070907090807D0
:100DB0000707090D080908020402050802060605CE
:100DC00006060406060102060109060606060405D3
:100DD000040607090607060301030707FE141E00A1
:100DE0001E0000009090F89690F89690001C00006D
:100DF0001C000000182422FF4242840810103C10FE
:100E000008041C22221CC0308C4240800000100CC0
:100E100000000C10100C805C2262920C80000C1000
:100E20001010100C08101E00F00C021C6080020C48
:100E3000F080601C04140E14040000000000404008
:100E400040F84040400000000C000000007080802E
:100E5000808000000000001000C038061804000068
:100E6000FC02020202FC0C101010100C0804FE0020
:100E7000001C0C020282423C1018141010100C02CC
:100E8000222222DC0C101010100C8040300804FECE
:100E90000004040404041C043816121212E20C109C
:100EA00010101804F844222222C40C101010100C48
:100EB000020202E21A0600001C000000DC222222CC
:100EC00022DC0C101010100C3C42424222FC081094
:100ED000101008040810087040A0A01010080000AE
:100EE0000004040890909090909000000000000092
:100EF000081010A0A0400804040000000C02824268
:100F0000221C000014000000E01804C42212121277
:100F1000A2720408F00C30404C909090889C905045
:100F20004C200080E09C829CE080001804000000BF
:100F300000000418FE2222222222DC1C10101010B5
:100F4000100CF80402020202040804081010101029
:100F50000804FE020202020204F81C101010101015
:100F60000804FE2222222222221C1010101010102F
:100F7000FE2222222222021C000000000000F804AF
:100F8000020202424244C804081010101010080463
:100F9000FE2020202020FE1C00000000001CFE1C63
:100FA00000000000FE0C1010100CFE804020508845
:100FB00004021C00000000040810FE0000000000F5
:100FC000001C101010101010FE0C30C000C0300CAF
:100FD000FE1C000004180400001CFE0418608000C1
:100FE000FE1C00000004081CF804020202020204B5
:100FF000F8040810101010100804FE424242424249
:101000003C1C000000000000F8040202020202047E
:10101000F8040810101014081C10FE424242C2428C
:10102000423C1C000000000408101C222222424204
:101030008C0C10101010100C020202FE02020200B2
:1010400000001C000000FE0000000000FE0408106C
:101050001010080406186080008060180600000068
:101060000418040000000638C000C03C023CC00068
:10107000C038060000041804000000041804000032
:10108000020C906060900C02100C000000040C1028
:1010900002041820C020180402000000001C0000F8
:1010A000000000028242221A0602101814101010CA
:1010B0001010FE02FC800638C0000000041802FE7A
:1010C00080FC201C021C200000000000000000002A
:1010D000000000008080808080808080020400000A
:1010E0001088484848F00C101010081CFE10080822
:1010F00008F01C081010100CF0080808100C101054
:101100001008F008080810FE0C101010081CF04819
:10111000484848700C101010100808FC0A0A001CFF
:101120000000F008080810F84C909090887CFE10A1
:10113000080808F01C000000001CFA1C00FA807C63
:10114000FE8040A010081C0000000C10FE1CF810CF
:101150000808F0100808F01C0000001C0000001C2B
:10116000F810080808F01C000000001CF00808082F
:1011700008F00C101010100CF810080808F0FC080B
:101180001010100CF008080810F80C10101008FCD3
:10119000F81008081C00000030484848900810105B
:1011A000100C08FE0808001C1010F800000000F8E1
:1011B0000C101010081C18608000806018000004DB
:1011C0001804000018E000E018E000E0180004181F
:1011D0000400041804000830C0C03008100C0000DF
:1011E0000C101860800080601800808C700C00006B
:1011F000080888681808101814101010807C020065
:101200007C80FEFC027C80807C004020206040408E
:101210002000000000000000FC0404040404FC1C86
:1012200010101010101CDA0AE71411241FBECFEFA3
:10123000D8E0DEBFCDBF11E0A0E0B1E0E8E5FBE221
:1012400002C005900D92A836B107D9F712E0A8E6C2
:10125000B1E001C01D92A132B107E1F712E1CAE28B
:10126000D2E104C02297FE010E94A615C632D10722
:10127000C9F70E9421150C94AA150C9400000F9335
:101280008EE092E00E94791402970CF48FC08EE0F9
:1012900092E00E94A41480936C018134C1F468E64A
:1012A00070E070936B0160936A018DE691E040E01D
:1012B00020E00FEF0E94660A8DE691E066E041E0D3
:1012C0000E94A30D8DE691E060E071E067C082347A
:1012D000C1F460E972E070936B0160936A018DE67E
:1012E00091E040E020E00FEF0E94660A8DE691E079
:1012F00066E041E00E94A30D8DE691E062E071E0BE
:101300004DC08334C1F468EB74E070936B0160935B
:101310006A018DE691E040E020E00FEF0E94660A4E
:101320008DE691E066E041E00E94A30D8DE691E03C
:1013300064E071E033C08434C1F460EE76E0709311
:101340006B0160936A018DE691E040E020E00FEFD1
:101350000E94660A8DE691E066E041E00E94A30DDE
:101360008DE691E066E071E019C08534F9F468E03B
:1013700079E070936B0160936A018DE691E040E043
:1013800020E00FEF0E94660A8DE691E066E041E002
:101390000E94A30D8DE691E068E071E00E945F1568
:1013A00068EE73E080E090E00E9457138DE691E0D4
:1013B00060E00E94500A0F910895EF92FF920F9300
:1013C0001F938DE6E82E81E0F82EC70160E00E94B1
:1013D000C80A0EE012E0C80140E855E260E070E0A3
:1013E0000E941C14C8016AE071E00E945F1560E36E
:1013F0007BE070936901609368018EE09DE09093BB
:101400006B0180936A01C70140E020E00FEF0E946A
:10141000660A64E670E080E090E00E945713C7011E
:1014200066E77DE04FEF24E43AE00E94D90DC70162
:1014300066E041E00E94A30DC7016BE171E00E94EC
:101440005F15C70166E042E00E94A30DC70164E298
:1014500071E00E945F15C70166E043E00E94A30DA2
:10146000C7016DE271E00E945F1568EE73E080E0F5
:1014700090E00E945713C70160E00E94500A1F913C
:101480000F91FF90EF900895FC0184910895EF92E1
:101490000F93260F040F0E947F0C0F91EF90089579
:1014A000CF92DF92EF920F936C01E62E60E040E066
:1014B0002FE70FE30E947F0CC60160E040E00E942E
:1014C000D00D0F91EF90DF90CF9008956F927F92A3
:1014D0008F929F92AF92BF92CF92DF92EF92FF9244
:1014E0000F931F93CF93DF93B82EC92EFB01742E59
:1014F000D22E602EEB012196A490FE01F4908F2D48
:1015000090E030E0822B932B87709070892B49F00C
:101510008B2D9C2D642F4D2D2A2D0F2DEE240E94F6
:10152000470A8E010F5F1F4FEF2CE694E694E69476
:10153000FF248A2C99241BC08B2D9C2D672D4D2DAB
:101540000E944F0BE8010AC0FE016491FFEF6F1289
:1015500060958B2D9C2D0E94AB0B21969E01201B2C
:101560002A1590F3080D191DF39438E0D30EFE14DC
:1015700018F3DF91CF911F910F91FF90EF90DF90C3
:10158000CF90BF90AF909F908F907F906F90089575
:101590000E94260D08950F931F938C010E94F8124C
:1015A0008CE391E0F8019183808310927A011F917E
:1015B0000F9108958DE691E00E94CB0A0895FC01F9
:1015C00086E491E0918380830895613019F4409816
:1015D000419A02C0409A419884B1807F84B98AB10F
:1015E0008F708AB985B18F6085B98BB1806F8BB9E7
:1015F0004398429A449AC89500C093B189B14498DF
:10160000807F9F70892B0895613019F44098419A2A
:1016100002C0409A419884B1807F84B98AB18F70AA
:101620008AB94398429A449AC89500C04F99FECF10
:101630004498089560917B01629566956695637004
:101640000E94040B439A429A00C0449AC89500C075
:1016500093B189B14498807F9F70892B08951F931F
:10166000162F642F0E94040B4398429884B18F6018
:1016700084B98AB1806F8AB985B1912F9F70807FBC
:10168000982B95B98BB1107F8F70812B8BB900C0CF
:10169000449AC895C895000044981F9108950F93E7
:1016A0001F93CF93DF93EC01162F80917B01681776
:1016B00021F480917C01481729F117FD23C04034A3
:1016C00008F510937B0140937C01012F029506954C
:1016D00006950370642F669566956695E02FF0E099
:1016E000E358FE4F8081681731F06083686BCE014C
:1016F000402F0E942F0B1F731064CE01612F402FCB
:101700000E942F0BDF91CF911F910F9108950F939E
:101710001F93CF93DF93EC0100917B0107FF02C081
:1017200010E013C00E941A0BCE010E941A0B182F52
:1017300080917A01811110958FEF80937B01CE010A
:10174000602F40917C010E944F0B812FDF91CF9140
:101750001F910F910895BF92CF92DF92EF92FF9267
:101760000F931F93CF93DF93EC01062F60917B01C2
:1017700067FDBBC0B62EB294B694B69483E0B8228F
:10178000F0907C0187E0F82209F478C0CE010E9435
:10179000870B182FCE016B2D0E94040B439A4298A1
:1017A00084B18F6084B98AB1806F8AB900C0449ACD
:1017B000C02EDD24EF2CFF24C6010E2C02C0880FA2
:1017C000991F0A94E2F7182B80917A0181111095E4
:1017D00085B1912F9F70807F982B95B98BB1107F29
:1017E0008F70182B1BB9C895C895000044980091BC
:1017F0007C01802F90E00896887F803491050CF062
:1018000037C0402F485F487FCE0160917B010E9426
:101810004F0BCE010E94870B182FCE016B2D0E941B
:10182000040B439A429884B18F6084B98AB1806F67
:101830008AB900C0449A88E090E08E199F0902C0DE
:10184000D594C7948A95E2F71C2980917A01811179
:10185000109585B1912F9F70807F982B95B98BB192
:10186000107F8F70182B1BB9C895C895000044983D
:1018700060917B016F5FCE01402F35C0CE016B2D93
:101880000E94040B439A429884B18F6084B98AB154
:10189000806F8AB980917A018111009500C0449AC5
:1018A00085B1902F9F70807F982B95B98BB1007F69
:1018B0008F70802B8BB9C895C895000044986091B3
:1018C0007B016F5F60937B01862F8295869586955D
:1018D00083708B1551F067FD08C08FEF80937B01FB
:1018E000CE0140917C010E944F0BDF91CF911F915F
:1018F0000F91FF90EF90DF90CF90BF9008957F926F
:101900008F929F92AF92BF92CF92DF92EF92FF920F
:101910000F931F93CF93DF93EC01962E7E2C81E0E3
:10192000C82EC41AC00EA82EA61AA20E542F577085
:10193000D42ED51AEC2CFF24652F70E028E030E07F
:10194000C901861B970BE816F9065CF42E193F09AE
:101950008FEF90E002C0959587952A95E2F71C2DB0
:1019600003C018E0151B8FEF90E002C0880F991F8D
:101970006A95E2F7B82ECE01692D4D2D0E944F0BCE
:1019800000E08B2C80940FC0CE010E94870B9FEF4C
:10199000791619F4682F6B2902C0682F6821CE01CF
:1019A0000E94AB0B0F5F0A1578F311C088E0D80EC8
:1019B000CE01692D4D2D0E944F0B00E005C0CE01D8
:1019C000672D0E94AB0B0F5F0A15C8F3185F212F1C
:1019D00030E0C90107968E159F0544F31C1538F5B4
:1019E000E21AF30A8FEF90E002C0880F991FEA9481
:1019F000E2F7082F009598E0D90ECE01692D4D2D04
:101A00000E944F0B10E0F02EF0940FC0CE010E9408
:101A1000870B9FEF791619F4682F602B02C0682F8F
:101A20006F21CE010E94AB0B1F5F1A1578F3DF9177
:101A3000CF911F910F91FF90EF90DF90CF90BF90CB
:101A4000AF909F908F907F9008950895EF92FF92AE
:101A50000F931F93CF93DF93EC013B9A3A9A3C9AF2
:101A60004498389A4098399A4198439842988FEF11
:101A700080937B0180937C0160937A0162E370E044
:101A800080E090E00E9457139DE7E92E91E0F92E47
:101A900000E01FEFCE01602F0E94E50A84FF03C023
:101AA00022E030E024C087FF03C021E030E01FC007
:101AB000F70111937F01CE016FE3402F0E942F0B9E
:101AC000CE0160EC402F0E942F0B0F5F023011F708
:101AD000CE0160E040E02FE70FE3EE240E947F0C90
:101AE000CE0160E040E00E944F0B20E030E0C901F1
:101AF000DF91CF911F910F91FF90EF900895EF929A
:101B00000F93FC01621750F4401740F467FD06C0C4
:101B1000403420F427FD02C007FF09C01582168259
:101B20008FE787838FE38087118680E006C0658317
:101B3000468327830087E18681E062874387148696
:101B40000F91EF9008950F931F93CF93DF93EC01C4
:101B5000162F042F8B819C810097E9F0E0917F0183
:101B6000F0918001029609958F5F819F802D11244D
:101B70009D81890F8A878B819C81E0917F01F09103
:101B80008001039609958F5F809F802D11249E818F
:101B9000890F8B871C86DF91CF911F910F9108953C
:101BA000FC018581860F82878681840F8387148656
:101BB0000895FC01748363833093800120937F0137
:101BC000428308952F923F924F925F926F927F923D
:101BD0008F929F92AF92BF92CF92DF92EF92FF923D
:101BE0000F931F93DF93CF9300D000D00F92CDB708
:101BF000DEB7F82ED92E542E222EA02E7E2C3C2C71
:101C0000202F30E0842F90E08E0D911D281739078A
:101C1000F4F0277030702F5F3F4F81E090E002C0FA
:101C2000880F991F2A95E2F7282F21952983B62E30
:101C3000302F387F3A83402E4E18842D887F8B8337
:101C400081E0882E912C662463946E18B5C08F2D88
:101C50009D2D222DEC2C0E947F0CB1C08F2D9D2D2F
:101C60006B2D4A810E944F0B8F2D9D2D0E94870B5B
:101C700009810823142D8F2D9D2D6B2D4B810E94E2
:101C80004F0B8F2D9D2D0E94870BE82ECA2C3BC039
:101C90008E2D90E0212F277002C0959587952A956B
:101CA000E2F780FF09C08C2D8770F40102C0EE0FAF
:101CB000FF1F8A95E2F70E2B8C2D90E087709070B5
:101CC000892B69F44C2D487F8F2D9D2D6B2D0E9403
:101CD0004F0B8F2D9D2D602F0E94AB0B00E0CA94FF
:101CE000112399F01150812F8770873061F4412FB3
:101CF000487F8F2D9D2D6B2D0E944F0B8F2D9D2D7D
:101D00000E94870BE82E151518F61C2DE72C2FC006
:101D1000812F90E0FFEF3F1651F48770907094018F
:101D200002C0220F331F8A95E2F7022B0BC0877087
:101D30009070F40102C0EE0FFF1F8A95E2F7CF0109
:101D400080950823812F90E087709070892B69F42B
:101D5000412F487F8F2D9D2D6B2D0E944F0B8F2D76
:101D60009D2D602F0E94AB0B00E01150EA94EE20F5
:101D700079F6462D4C0D242F30E0277030703D83CE
:101D80002C83232BC1F0487F8F2D9D2D6B2D0E941E
:101D90004F0B8F2D9D2D0E94870BB4010C8002C02C
:101DA000660F771F0A94E2F761506823602B8F2D2E
:101DB0009D2D0E94AB0BB3942B1408F04FCF0F90C6
:101DC0000F900F900F900F90CF91DF911F910F9177
:101DD000FF90EF90DF90CF90BF90AF909F908F904B
:101DE0007F906F905F904F903F902F9008952F922B
:101DF0003F924F925F926F927F928F929F92AF929B
:101E0000BF92CF92DF92EF92FF920F931F93DF93D7
:101E1000CF9300D0CDB7DEB7F82ED92EA42E322E18
:101E2000602E7E2C4C2C50E09A012E0D311D802FFF
:101E300090E082179307CCF04770507081E090E0FB
:101E400002C0880F991F4A95E2F7282F2150298355
:101E5000E62E3A2D387F3A83572C5A0C28EF222E43
:101E6000252091E0892E912CB3C08F2D9D2D4A2DD8
:101E7000232DEC2C0E947F0CAEC08F2D9D2D6E2D3E
:101E80004A810E944F0B8F2D9D2D0E94870BC98088
:101E9000C822052D8F2D9D2D6E2D422D0E944F0B9A
:101EA0008F2D9D2D0E94870BB82E1A2D3BC08B2D98
:101EB00090E0202F277002C0959587952A95E2F72C
:101EC00080FF09C0812F8770F40102C0EE0FFF1F51
:101ED0008A95E2F7CE2A0F5F802F90E0877090708E
:101EE000892B71F4003460F4402F487F8F2D9D2D95
:101EF0006E2D0E944F0B8F2D9D2D0E94870BB82EAB
:101F0000812F8770873069F4412F487F8F2D9D2D59
:101F10006E2D0E944F0B8F2D9D2D6C2D0E94AB0BB3
:101F2000CC241F5F601618F6B12E072D2DC0812F0F
:101F300090E0FFEF4F1651F487709070940102C04B
:101F4000220F331F8A95E2F7C22A0BC08770907068
:101F5000F40102C0EE0FFF1F8A95E2F7CF018095D2
:101F6000C822812F8770873069F4412F487F8F2DD9
:101F70009D2D6E2D0E944F0B8F2D9D2D6C2D0E943F
:101F8000AB0BCC241F5F0150002389F64B2D470D6E
:101F9000042F10E00770107001151105C1F04150B9
:101FA000487F8F2D9D2D6E2D0E944F0B8F2D9D2DC7
:101FB0000E94870BB40102C0660F771F0A95E2F7F3
:101FC000619568236C298F2D9D2D0E94AB0BE394A6
:101FD0003E1408F052CF0F900F90CF91DF911F91D8
:101FE0000F91FF90EF90DF90CF90BF90AF909F90B8
:101FF0008F907F906F905F904F903F902F900895BB
:10200000CF92EF920F931F93CF93DF93EC016A303F
:1020100009F070C08B819C81E0917F01F09180017B
:1020200003960995182F6A852F81621768F44B85EE
:102030008A818F3F11F03FEF01C030E0012F040F84
:10204000CE01E32E0E947F0C8985EB84212F30E0A6
:10205000882341F5F901EE0FFF1F08859F012E0D22
:10206000311D802F90E028173907C4F08C85882314
:1020700051F16D814E812F818A818F3F11F03FEFA9
:1020800001C030E0E394E01AEE0ECE01C32E0E94B0
:10209000F70E8D818A878885811B2BC08D818A8769
:1020A000E3940BC04E818E2D90E0240F311D281734
:1020B000390734F48D818A871095E10EEB861AC0BA
:1020C0008C85882319F481E08C8714C06D812F8161
:1020D00008858A818F3F11F03FEF01C030E0E39423
:1020E000E41AE10ECE01C32E0E94E20D8D818A8793
:1020F0008E818B87DF91CF911F910F91EF90CF90C1
:1021000008952F923F924F925F926F927F928F929B
:102110009F92AF92BF92CF92DF92EF92FF920F9376
:102120001F93DF93CF93CDB7DEB76A970FB6F894BE
:10213000DEBF0FBECDBF7C01062FDC0113968D9153
:102140009C911497009709F42DC2603220F4C701C6
:102150000E94001024C2E0917F01F091800103965B
:1021600009958E83F70183819481E0917F01F0913D
:10217000800104960995182FD70113968D919C9193
:102180001497E0917F01F091800105960995A82EA2
:10219000011708F407C2202F30E0812F90E08A0D4C
:1021A000911D281739070CF0FDC1FE81EF2FF0E0DB
:1021B000F987E887CF01079663E0959587956A953B
:1021C000E1F7C82EB02EB11AE0917F01F0918001A5
:1021D000D70113968D919C9114970995882309F046
:1021E000FDC1F70183819481E0917F01F09180012D
:1021F00001960995882309F0F1C1D70113968D91B5
:102200009C911497E0917F01F091800102960995CD
:102210008F83CB9C9001112490E0289F6001299F1F
:10222000D00C389FD00C1124E6E0F0E0CE0EDF1E7B
:102230001D8230C0C901880D991D0995080F111D17
:10224000D3940894811C911CD70113962D913C9135
:102250001497E0917F01F0918001DB1458F38C2DED
:1022600090E0AC01049FC001059F900D149F900D5C
:102270001124CA2CDD2466E070E0C60ED71EC80EFD
:10228000D91E8B2D90E00696820F931F09958F83A0
:1022900071E07D83D7011C968C91882331F0C701B2
:1022A0006AE00E948110F70114863F81232F30E0FD
:1022B0003A832983D7011A968C911A97280F311DDA
:1022C00017968C9190E0821793077CF4C7016AE01F
:1022D0000E948110F7018485882339F0C7016AE0E4
:1022E0000E948110D7011C961C92BE81BF5FBC83E7
:1022F000EA86FB867724888599858770907058E0F8
:10230000252E312C281A390AF6012F81E20FF11DF2
:10231000FE8BED8B4B2F50E0588F4F8B34C1D70184
:102320001B966C901B97670C462D487F8A859B8572
:102330001A966C910E944F0B872D869586958695EF
:1023400090E0E981FA818E9FA0018F9F500D9E9FA2
:10235000500D11242A014C0C5D1C1B82272D30E0EE
:10236000C901887F68857985681B790B7F876E87AF
:10237000A62CBB24A22AB32A77E0A722BB24862D51
:102380008770888BAD89BE89A40FB51FBA8BA98BC6
:10239000EF89F88DE21BF30BFC8BEB8BA4C0FE8165
:1023A0007F1610F010E01CC0D70113968D919C9100
:1023B0001497E0917F01F0918001840D951D09959E
:1023C000182FBD81BB2361F0EE85FF85389744F45B
:1023D00090E0022C02C0959587950A94E2F7182F99
:1023E000D70112968C91882309F41095A114B10499
:1023F00041F4EB89FC89389724F08A859B85612F0D
:102400006AC08A859B850E94870B982E0889872C35
:1024100029893A894B81240F311D3D872C87682DEE
:1024200070E07A8F698F9B0127703070812F90E068
:10243000022E02C0959587950A94E2F780FF0AC0A4
:1024400081E090E0002E02C0880F991F0A94E2F705
:10245000982A0AC081E090E0002E02C0880F991FE0
:102460000A94E2F7809598222730310549F5D70183
:1024700013968D919C911497E0917F01F0918001CA
:102480002C853D85820F931F0995182F3D8133239D
:1024900089F088859985498D5A8D841B950B0897FD
:1024A0004CF4812F90E0022C02C0959587950A94F8
:1024B000E2F7182FD70112968C91882309F4109512
:1024C0000F5F083029F08394BC818B1608F4A7CFE6
:1024D0008A859B85692D0E94AB0BEB81EF5FEB83B7
:1024E0000894411C511CFB812F81F21708F457CF2F
:1024F000062D10E0077010700115110531F48F8959
:10250000988D87199109089774F58A859B850E9493
:10251000870B282F0115110511F460E009C081E037
:1025200090E002C0880F991F0A95E2F7682F61506A
:102530008F89988D871991098830910554F441E06D
:1025400050E002C0440F551F8A95E2F7CA018195F9
:10255000682BD70112968C91882319F46095622B11
:1025600009C0622307C0F7018281882311F060E06F
:1025700001C06FEF8A859B850E94AB0BF7E06F224D
:1025800088E08619780E2C81721608F4C8CED7011F
:102590001A968C918F5FBF818B0FF701828721E0A4
:1025A00030E002C020E030E0C9016A960FB6F8942E
:1025B000DEBF0FBECDBFCF91DF911F910F91FF9076
:1025C000EF90DF90CF90BF90AF909F908F907F90D3
:1025D0006F905F904F903F902F90089500E010E033
:1025E000DD2446E0842E912C2FCE0E948110089588
:1025F000EF920F931F938C010E94DF0A80E591E018
:10260000F80191838083C80160E040E02FE70FE389
:10261000EE240E947F0D1F910F91EF9008951F925D
:102620000F920FB60F9211242F933F938F939F9386
:10263000AF93BF938091850190918601A09187010E
:10264000B0918801309189010196A11DB11D232F00
:102650002D5F2D3720F02D570196A11DB11D209320
:1026600089018093850190938601A0938701B0939F
:1026700088018091810190918201A0918301B091A4
:1026800084010196A11DB11D809381019093820167
:10269000A0938301B0938401BF91AF919F918F91DB
:1026A0003F912F910F900FBE0F901F9018959B0197
:1026B000AC017FB7F8948091810190918201A09143
:1026C0008301B091840166B5A89B05C06F3F19F0E6
:1026D0000196A11DB11D7FBFBA2FA92F982F882762
:1026E000860F911DA11DB11D62E0880F991FAA1FC1
:1026F000BB1F6A95D1F7BC012DC0FFB7F89480913C
:10270000810190918201A0918301B0918401E6B58D
:10271000A89B05C0EF3F19F00196A11DB11DFFBF99
:10272000BA2FA92F982F88278E0F911DA11DB11D9B
:10273000E2E0880F991FAA1FBB1FEA95D1F7861BFD
:10274000970B885E9340C8F2215030404040504083
:1027500068517C4F211531054105510571F60895E9
:10276000789484B5826084BD84B5816084BD85B56C
:10277000826085BD85B5816085BDEEE6F0E0808133
:1027800081608083E1E8F0E0108280818260808354
:10279000808181608083E0E8F0E0808181608083D7
:1027A000E1EBF0E0808184608083E0EBF0E0808109
:1027B00081608083EAE7F0E08081846080838081AB
:1027C0008260808380818160808380818068808353
:1027D0001092C10008951F920F920FB60F9211240C
:1027E0002F933F934F938F939F93EF93FF9340913A
:1027F000C600E0910A02F0910B0231969F012F77FB
:102800003070319780910C0290910D022817390792
:1028100039F0E657FE4F408330930B0220930A02B3
:10282000FF91EF919F918F914F913F912F910F9039
:102830000FBE0F901F901895CF93DF93EC019A0174
:10284000AB01E885F985203081EE380780E0480744
:1028500080E0580709F449C081E090E00A8802C08E
:10286000880F991F0A94E2F7808360E079E08DE396
:1028700090E00E9489152150304040405040CA01EC
:10288000B90122E030E040E050E00E948915EC817F
:10289000FD813083EE81FF812083EA85FB852081E5
:1028A00041E050E0CA010E8402C0880F991F0A94CB
:1028B000E2F7282B2083EA85FB852081CA010F845B
:1028C00002C0880F991F0A94E2F7282B2083EA851B
:1028D000FB858081088802C0440F551F0A94E2F7E7
:1028E000842B8083DF91CF910895108220E130E026
:1028F000CECFDC011296ED91FC911397E058FF4F7B
:102900002191319180819181281B390B2F77307073
:10291000C9010895DC011296ED91FC911397EE57D1
:10292000FF4F2081318192918291E058F0408217CF
:10293000930719F42FEF3FEF05C0E20FF31F8081DB
:10294000282F30E0C9010895DC011296ED91FC9129
:102950001397DF01AE57BF4F2D913C911197E0586F
:10296000FF4F80819181E058F0408217930719F45E
:102970002FEF3FEF0BC0E20FF31F80812F5F3F4F20
:102980002F7730702D933C93282F30E0C9010895A4
:10299000DC011296ED91FC911397EE57FF4F808169
:1029A0009181929382930895FC01A085B18521893C
:1029B0008C9190E0022E02C0959587950A94E2F7DB
:1029C00080FFF6CF0484F585E02D608308958AE5C5
:1029D00091E090930F0280930E028AE891E0909329
:1029E00011028093100285EC90E090931302809383
:1029F000120284EC90E0909315028093140280EC14
:102A000090E0909317028093160281EC90E09093EF
:102A100019028093180286EC90E090931B02809339
:102A20001A0284E080931C0283E080931D0287E0F9
:102A300080931E0285E080931F0281E08093200234
:102A400008950E94B0130E94DD090E943F09FDCF46
:102A50000F931F93CF93DF938C01EB0109C0219655
:102A6000D801ED91FC910190F081E02DC80109950C
:102A700068816623A1F7DF91CF911F910F9108958F
:102A8000EF92FF920F931F93CF93DF938C017B0103
:102A9000EA010CC0D7016D917D01D801ED91FC9147
:102AA0000190F081E02DC80109952197209791F7B9
:102AB000DF91CF911F910F91FF90EF900895DC016E
:102AC000ED91FC910280F381E02D09950895A1E23A
:102AD0001A2EAA1BBB1BFD010DC0AA1FBB1FEE1F98
:102AE000FF1FA217B307E407F50720F0A21BB30BE3
:102AF000E40BF50B661F771F881F991F1A9469F75F
:102B000060957095809590959B01AC01BD01CF01BA
:102B1000089597FB092E05260ED057FD04D0D7DF68
:102B20000AD0001C38F450954095309521953F4FC0
:102B30004F4F5F4F0895F6F790958095709561958A
:102B40007F4F8F4F9F4F0895EE0FFF1F0590F49119
:082B5000E02D0994F894FFCF79
:102B58004100420043004400450077656C636F6D97
:102B68006520746F20474C43440A00416D657269C3
:102B780063616E005374616E6461726400536967C7
:102B88006E204C616E672E0000000000F5122815BB
:102B9800401500000000250D281540150000000014
:102BA800F5122815401500000000D414281540150A
:082BB8007914A4148A14C81456
:00000001FF
