:03000000020DF4FA
:0C0DF400787FE4F6D8FD75815A020E3BB2
:10115B00E4FDFCC3ED9FEE6480F8EC648098500DC9
:0D116B00E4FB0BBB0AFC0DBD00010C80E68F
:011178002254
:1010F400E4FDFCD3ED9FEE6480F8EC648098501519
:10110400E4FBFA0BBB00010AEB64734A70F50DBDF6
:0511140000010C80DE6B
:0111190022B3
:0B124200C10BC10DC10AC10C01180056
:0512360012123BD2B6CC
:06123B00E4FF0FBF1FFCE1
:01124100228A
:06128300121236C2B62271
:1011E50030B602C2B6D2B7D2B612123BC2B712128D
:0411F5003BC2B62221
:0D12290030B602C2B6C2B7121236D2B722DA
:0210A500AE0794
:1010A700E4FDEE339209A20992B7121283EE25E00E
:1010B700FE0DBD08EDD2B7121236A2B79209C2B61D
:0510C70012123BA2091A
:0110CC002201
:10117900E4FEFD121236A2B79209EE25E0FEA2099D
:0C118900E4334206C2B60DBD08E9AF0613
:011195002237
:0B125A00C2B712123B121283D2B7225F
:0B126500D2B712123B121283D2B62245
:1011CC00AC05AB071211E57FA01210A5AF031210EE
:0911DC00A5AF041210A5021229AE
:02111A00AC0720
:10111C001211E57FA01210A5AF041210A51211E553
:0F112C007FA11210A5121179AE07121229AF067A
:01113B002291
:03001300020C3E9E
:100C3E00C0E0C0F0C083C082C0D075D000C000C07C
:0D0C4E0001C002C003C004C005C006C007FD
:100C5B007D407F071211B1C28B1210728F1E740868
:100C6B002518F8A61EE51EB4530C751800FF120FBD
:100C7B00B07F41120FB0E51EB44704D20CD20AE587
:100C8B001EB44402C20AE518B40A1B2408F8E6B4E1
:100C9B005414754400120D670544E544C3940B408E
:100CAB00F47518008008E51E645360020518AF1E2A
:030CBB00120FB065
:100CBE00D007D006D005D004D003D002D001D0008A
:0B0CCE00D0D0D082D083D0F0D0E03234
:0A127000309807AF99C298120FB032
:01127A002251
:100D6700E4F546F545E545C3940A50207408254542
:100D7700F8E6FF74092545F8E6FD120EF77413250A
:100D870046F8A60705460545054580D9AD137F01F9
:100D97001211CC7D0F7F021211CCAD147F031211FB
:100DA700CC7D0F7F041211CCAD157F051211CC7DC0
:100DB7000F7F061211CCAD167F071211CC7D0F7F66
:100DC700081211CCAD177F091211CCE4F546754511
:100DD70001E545C3940A5014AF4512111A74192539
:0C0DE70046F8A60705460545054580E5D1
:010DF30022DD
:100EF700C3EF648094B0400CD3EF648094B950047E
:100F0700EF24D0FEC3EF648094C1400CD3EF64801C
:100F170094C65004EF24C9FEC3ED648094B0400C1E
:100F2700D3ED648094B95004ED24D0FCC3ED648004
:100F370094C1400CD3ED648094C65004ED24C9FCE1
:0E0F4700EEC454F0FE5306F053040FEE4CFFC0
:010F55002279
:100B5C001211967D3BE4FF1211B1E4FD7F011211DD
:100B6C00B17D037F021211B17D017F111211B17D94
:100B7C00017F121211B17D027F051211B17D267F0A
:100B8C00061211B17D01E4FF120F56C2947FE17E73
:100B9C000012121BD294C2947FE27E0012121BD25E
:100BAC0094E4FB752201E522C3940A5012AF221281
:100BBC00111A74192BF8A6070B0522052280E77F62
:100BCC00587E1B1210F412103720A304D20B800293
:100BDC00C20B300B11200D0E120FFC7D057F101275
:100BEC000F56D20D801C200B19300D167B007A008D
:100BFC0079197F10120E807D057F10120F56C20DD1
:100C0C00D20B20A128300A25300C22C20CE4F5228C
:100C1C007F58120FB07F647E0012115BE51EB42367
:100C2C000375220A0522E522C3940940E3121270CF
:020C3C0080979F
:1011960012120CD290D294C295D296C297D2A17551
:0B11A600D5D075A89475B704D2B32211
:0C124E000A646174615F696E09000900A8
:0211B1008D4669
:1011B300EF2420FFC2947E0012121B8F47AF467E9E
:0811C3000012121B8F48D294A8
:0111CB002201
:040F56008F238D2434
:100F5A00E4F525C294F525E525D395245012AF234F
:100F6A007E0012121B74472525F8A607052580E77F
:100F7A00D294E4F525E525D3952450297BFF7A12EE
:100F8A00794E1211F9AF257E0012113C7BFF7A12BD
:100F9A0079581211F974472525F8E6FF7E001211D7
:050FAA003C052580D08C
:010FAF00221F
:100FB0008F45C2947FE17E0012121B8F47D294C2EC
:100FC000947FA07E0012121B8F47AF457E00121245
:100FD0001B8F48D294C2907F017E0012115B7D3A34
:100FE000E4FF1211B17F017E0012115BD2907F0AE3
:0C0FF0007E0012115B7D3BE4FF0211B19A
:10107200C2947F617E0012121B8F51E4FFFE121296
:101082001B8F52D2947F0A7E0012115BC2947FE2C0
:101092007E0012121B8F47D2947F017E0012115BD9
:0310A200AF522228
:060E80008B238A24892562
:100E8600EF2420FFC2947E0012121B8F47AB23AAC9
:100E960024A925120CD9FF7E0012121B8F48AB2302
:100EA600AA24A925900001120CF2FF7E0012121B43
:100EB6008F49AB23AA24A925900002120CF2FF7ECB
:100EC6000012121B8F4AAB23AA24A92590000312F5
:100ED6000CF2FF7E0012121B8F4BAB23AA24A9250E
:100EE600900004120CF2FF7E0012121B8F4CD2945B
:010EF60022D9
:100FFC007F30C2947E0012121B8F477FE77E001257
:10100C00121B8F487FE77E0012121B8F497FE77EF1
:10101C000012121B8F4A7FE77E0012121B8F4B7F30
:0A102C00E77E0012121B8F4CD294D5
:011036002297
:101037007F2AC2947E0012121B8F477FE77E001221
:10104700121B8F487FE77E0012121B8F497FE77EB6
:101057000012121B8F4A7FE77E0012121B8F4B7FF5
:0A106700E77E0012121B8F4CD2949A
:01107100225C
:0E121B008F86E5AA30E7FBE4F5AAAF86FE2237
:03128900256400D9
:0F120C00758920758DFD759850D28E75A890222A
:08127B008F993099FDC2992200
:1011F900120CD9FF600C12127B740129F9E43AFA36
:0312090080EE2252
:10113C007533FF7534127535898E368F377B007A8F
:0F114C0000792612085C7B007A0079260211F9DF
:100E0000020B5CE493A3F8E493A34003F68001F2A1
:100E100008DFF48029E493A3F85407240CC8C333F3
:100E2000C4540F4420C8834004F456800146F6DFC2
:100E3000E4800B0102040810204080901242E47EFE
:100E4000019360BCA3FF543F30E509541FFEE493B7
:100E5000A360010ECF54C025E060A840B8E493A37E
:100E6000FAE493A3F8E493A3C8C582C8CAC583CAA9
:100E7000F0A3C8C582C8CAC583CADFE9DEE780BE61
:01124D0000A0
:100CD900BB010689828A83E0225002E722BBFE0219
:090CE900E32289828A83E493224C
:100CF200BB010CE58229F582E5833AF583E02250B7
:100D020006E92582F8E622BBFE06E92582F8E22200
:0D0D1200E58229F582E5833AF583E493221A
:10080000E53F2433F8E6053F22783030070278339D
:10081000E475F001120D31020CD92000EB7F2ED2CD
:10082000008018EF540F2490D43440D4FF30040BD0
:10083000EF24BFB41A0050032461FFE540600215A5
:10084000400543E5437002054230070D7830E475FA
:10085000F001120D31EF020D1F0210CD7403D2070B
:100860008003E4C207F53F8B308A318932E4F540DA
:10087000F542F543E54060077F2012083B80F5759F
:1008800041FFC201C200C202C203C205C206C208C1
:10089000120809FF700D3007057F0012084CAF43A6
:1008A000AE4222B4255FC2D5C204120809FF24D08B
:1008B000B40A00501A75F00A784030D50508B6FF22
:1008C0000106C6A426F620D5047002D20380D924DE
:1008D000CFB41A00EF5004C2E5D204020A4CD20190
:1008E00080C6D20080C0D20280BCD2D580BAD205E8
:1008F00080B47F2012083B2002077401B5400040FD
:10090000F1120800FF12083B020874D208D20680D8
:1009100095120800FB120800FA120800F94A4B7001
:1009200006791D7A0B7BFF20022EE540602A7E00AF
:100930008E82758300120CF260060EEE654170F037
:10094000C2D5EBC0E0EAC0E0E9C0E0EE120A93D005
:10095000E0F9D0E0FAD0E0FB120CD9FF60AAEBC0BE
:10096000E0EAC0E0E9C0E012083BD0E02401F9D0A1
:10097000E03400FAD0E0FBE5410460DCD541D980E9
:10098000877BFF7A0A798FD202809C791080027966
:1009900008C206C2088008D2D5790A8004790AC242
:1009A000D5E541047002F541E4FAFDFEFF120800AE
:1009B000FC7B08200113120800FD7B1030000A1296
:1009C0000800FE120800FF7B20EC3382D592D55040
:1009D00013C3E43000069FFFE49EFEE42001039D64
:1009E000FDE49CFCE4CBF8C201EC700CCFCECDCC86
:1009F000E824F8F870F38017C3EF33FFEE33FEED11
:100A000033FDEC33FCEB33FB994002FB0FD8E9EBF1
:100A1000300105F8D0E0C448B201C0E00AEC4D4E08
:100A20004F78207B0070C2EAB5410040BCC0E012A4
:100A30000A95D0F0D0E0200104C4C0E0C4B201C0E7
:100A4000F0120824D0F0D5F0EB020874120D410921
:100A50001153098B5808E24C08DE42098F4F099761
:0F0A60004409974908F743099D550981460981C3
:100A6F00450981470B3D5008E62D08EA2E090D2B4D
:100A7F0008EE23090B200B262A08A64800000905BB
:100A8F003F3F3F00790AA2D5200314300509B91062
:100A9F00020404B9080104A2D52006025001042063
:100AAF0002689202B540005034C0E07F2030031935
:100ABF007F30A20272067205500F120AECC202C2F8
:100ACF0006C205C2087F30800F300503E9C0E0126F
:100ADF00083B300503D0E0F9D0E0B540CC30051726
:100AEF007F30B9100C12083B7F583004077F788095
:100AFF0003B9080312083B3002057F2D02083B7F24
:100B0F00202008F87F2B2006F322920280CF286E38
:100B1F00756C6C2900D2011208003001F8C20178FF
:100B2F004030D50108F60208A62D50434958120847
:100B3F00002403B405004001E4900B389312082CF5
:0D0B4F00743A12082CD20375400402098B81
:100D1F00BB010689828A83F0225002F722BBFE01B3
:020D2F00F322AD
:100D3100FAE6FB0808E6F925F0F618E6CA3AF622C3
:100D4100D083D082F8E4937012740193700DA3A341
:100D510093F8740193F5828883E473740293686055
:060D6100EFA3A3A380DF55
:1010CD00EFB40A07740D1210D8740A309811A8994C
:1010DD00B8130CC2983098FDA899C298B811F63083
:0710ED0099FDC299F599225B
:00000001FF
