:10120200E4FEEEC39F5009E4FD0DBD0AFC0E80F220
:0112120022B9
:0C123D000A646174615F696E09000900B9
:0211A7008D5861
:1011A900EF2420FFC2947E001212228F08AF587ECE
:0811B900001212228F09D294EA
:0111C100220B
:040F40008F1C8D1D58
:100F4400E4F51EC294F51EE51ED3951D5012AF1C88
:100F54007E001212227408251EF8A607051E80E7DB
:100F6400D294E4F51EE51ED3951D501D7BFF7A1225
:100F7400793D1211EFAF1E7E0012116B7BFF7A12C6
:090F840079471211EF051E80DC13
:010F8D002241
:100F8E008F57C2947FE17E001212228F08D294C234
:100F9E00947FA07E001212228F08AF577E0012128D
:100FAE00228F09D294C2907F017E001212027D3AE6
:100FBE00E4FF1211A77F017E00121202D2907F0A67
:0C0FCE007E001212027D3BE4FF0211A71E
:10105200C2947F617E001212228F12E4FFFE1212EE
:10106200228F13D2947F0A7E00121202C2947FE270
:101072007E001212228F08D2947F0A7E0012120280
:03108200AF132287
:100FDA00EF2420FFC2947E001212228F087FB17E76
:100FEA00001212228F097FB17E001212228F0A7F0D
:100FFA00B17E001212228F0B7FB17E001212228F55
:0C100A000C7FB17E001212228F0DD294D8
:0110160022B7
:101017007F30C2947E001212228F087FE77E001273
:1010270012228F097FE77E001212228F0A7FE77E46
:10103700001212228F0B7FE77E001212228F0C7F85
:0A104700E77E001212228F0DD294F2
:01105100227C
:0E1222008F86E5AA30E7FBE4F5AAAF86FE2230
:03127F00256400E3
:0F121300758920758DFD759850D28E75A8902223
:08126B008F993099FDC2992210
:1011EF00120CE1FF600C12126B740129F9E43AFA48
:0311FF0080EE225D
:10116B007525FF75261275277F8E288F297B007AB0
:0F117B0000794912085C7B007A0079490211EF74
:1011240050574400535347503031005353475030C5
:101134003200535347503033000A206E6F74206DD1
:05114400617463680006
:05127900013600C1096F
:0512490012124ED2B6A6
:06124E00E4FF0FBF1FFCCE
:011254002277
:06127300121249C2B6226E
:1011DB0030B602C2B6D2B7D2B612124EC2B7121284
:0411EB004EC2B62218
:0D12300030B602C2B6C2B7121249D2B722C0
:0210B000AE0789
:1010B200E4FDEE33920AA20A92B7121273EE25E011
:1010C200FE0DBD08EDD2B7121249A2B7920AC2B6FE
:0510D20012124EA20AFB
:0110D70022F6
:10118A00E4FEFD121249A2B7920AEE25E0FEA20A77
:0C119A00E4334206C2B60DBD08E9AF0602
:0111A6002226
:0B125500C2B712124E121273D2B72261
:0B126000D2B712124E121273D2B62247
:1011C200AC05AB071211DB7FA01210B0AF031210F7
:0911D200B0AF041210B00212309B
:02114900AC07F1
:10114B001211DB7FA01210B0AF041210B01211DB22
:0F115B007FA11210B012118AAE07121230AF0628
:01116A002262
:100DFB00309873859955C29820B548E555B4730260
:100E0B00804674392536F8A655E5556474703085DF
:100E1B003638F5367BFF7A1179241211EF755602AD
:100E2B00E556C39538500E74392556F8E6FF121265
:100E3B006B055680EBE53AB47005AF381210FF0521
:100E4B00368021E555B47305753601801774392545
:100E5B0036F8A655E555B47409853638E4F53612DF
:060E6B000B5C0536C29885
:010E7100225E
:0210FF008F5709
:101101007A02E4F9EAD395575018AF0174392AF8F5
:10111100E6FD1211C2E904FFE4FD1211C209090A38
:0211210080E26A
:0111230022A9
:100B5C00E4FF121149EF653A6003020CD77F0212D1
:100B6C001149EF653B6003020CD77F04121149EF6A
:100B7C00653C6003020CD7E53D64417069E540B407
:100B8C004C07E541B43102B2A0E540B44C07E54155
:100B9C00B43202B2A1E540B44C07E541B43302B221
:100BAC00A2E540B44C07E541B43402B2A3E540B42D
:100BBC004C07E541B43502B2A4E540B44C07E5411D
:100BCC00B43602B2A5E540B44C07E541B43702B2E5
:100BDC00A6E540644C6003020CE0E5416438600318
:100BEC00020CE0B2A722E53D64536003020CE0E581
:100BFC004164417045E5426452703FE543644D7079
:100C0C0039FF12114912126B7F0212114912126B29
:100C1C007F0412114912126B7BFF7A117928121181
:100C2C00EF7F47120F8E7F10120FDA7D457F101267
:100C3C0011A77F53120F8E121017E54164447045B3
:100C4C00E5426452703FE543644D7039FF1211491F
:100C5C0012126B7F0212114912126B7F041211498E
:100C6C0012126B7BFF7A11792F1211EF7F44120F46
:100C7C008E7F10120FDA7D457F101211A77F441260
:100C8C000F8E121017E54164537049E542644F70A2
:100C9C0043E5436453703DFF12114912126B7F02FE
:100CAC0012114912126B7F0412114912126B7BFF45
:100CBC007A1179361211EF7F10120FDA7D457F1001
:100CCC001211A77F58120F8E0210177BFF7A117921
:050CDC003D1211EF22A2
:03001300020E7268
:100E7200C0E0C0F0C083C082C0D075D000C000C046
:100E820001C002C003C004C005C006C00712105250
:100E92008F37E537645870277F23120F8E7F101229
:100EA2000FDA7D457F101211A77F647E00121202B5
:100EB2007F58120F8E7F647E001212021210177D6D
:100EC200407F071211A7C28BD007D006D005D004ED
:100ED200D003D002D001D000D0D0D082D083D0F0C5
:030EE200D0E0322B
:100EE5001210857D3BE4FF1211A7E4FD7F0112116D
:100EF500A77D037F021211A77D017F111211A77D26
:100F0500017F121211A77D027F051211A77D267F91
:100F1500061211A7C2947FE17E00121222D294C25A
:100F2500947FE27E00121222D2947F0B120FDA7D9B
:0B0F3500457F0C1211A7120DFB80FB82
:10108500121213D2B5C2A0C2A1C2A2C2A3C2A4C2E7
:10109500A5C2A6C2A7D290D294C295D296C2977580
:0B10A500D5D075A89475B704D2B32213
:03000000020D6F7F
:0C0D6F00787FE4F6D8FD758158020DB6BF
:100CE100BB010689828A83E0225002E722BBFE0211
:090CF100E32289828A83E4932244
:10080000E5312425F8E605312278223007027825E3
:10081000E475F001120D39020CE12000EB7F2ED2BD
:10082000008018EF540F2490D43440D4FF30040BD0
:10083000EF24BFB41A0050032461FFE532600215B3
:10084000320535E5357002053430070D7822E47540
:10085000F001120D39EF020D270210D87403D207F0
:100860008003E4C207F5318B228A238924E4F53220
:10087000F534F535E53260077F2012083B80F575C9
:1008800033FFC201C200C202C203C205C206C208CF
:10089000120809FF700D3007057F0012084CAF35B4
:1008A000AE3422B4255FC2D5C204120809FF24D099
:1008B000B40A00501A75F00A783230D50508B6FF30
:1008C0000106C6A426F620D5047002D20380D924DE
:1008D000CFB41A00EF5004C2E5D204020A4CD20190
:1008E00080C6D20080C0D20280BCD2D580BAD205E8
:1008F00080B47F2012083B2002077401B53200400B
:10090000F1120800FF12083B020874D208D20680D8
:1009100095120800FB120800FA120800F94A4B7001
:1009200006791D7A0B7BFF20022EE532602A7E00BD
:100930008E82758300120CFA60060EEE653370F03D
:10094000C2D5EBC0E0EAC0E0E9C0E0EE120A93D005
:10095000E0F9D0E0FAD0E0FB120CE1FF60AAEBC0B6
:10096000E0EAC0E0E9C0E012083BD0E02401F9D0A1
:10097000E03400FAD0E0FBE5330460DCD533D98005
:10098000877BFF7A0A798FD202809C791080027966
:1009900008C206C2088008D2D5790A8004790AC242
:1009A000D5E533047002F533E4FAFDFEFF120800CA
:1009B000FC7B08200113120800FD7B1030000A1296
:1009C0000800FE120800FF7B20EC3382D592D55040
:1009D00013C3E43000069FFFE49EFEE42001039D64
:1009E000FDE49CFCE4CBF8C201EC700CCFCECDCC86
:1009F000E824F8F870F38017C3EF33FFEE33FEED11
:100A000033FDEC33FCEB33FB994002FB0FD8E9EBF1
:100A1000300105F8D0E0C448B201C0E00AEC4D4E08
:100A20004F78207B0070C2EAB5330040BCC0E012B2
:100A30000A95D0F0D0E0200104C4C0E0C4B201C0E7
:100A4000F0120824D0F0D5F0EB020874120D490919
:100A50001153098B5808E24C08DE42098F4F099761
:0F0A60004409974908F743099D550981460981C3
:100A6F00450981470B3D5008E62D08EA2E090D2B4D
:100A7F0008EE23090B200B262A08A64800000905BB
:100A8F003F3F3F00790AA2D5200314300509B91062
:100A9F00020404B9080104A2D52006025001042063
:100AAF0002689202B532005034C0E07F2030031943
:100ABF007F30A20272067205500F120AECC202C2F8
:100ACF0006C205C2087F30800F300503E9C0E0126F
:100ADF00083B300503D0E0F9D0E0B532CC30051734
:100AEF007F30B9100C12083B7F583004077F788095
:100AFF0003B9080312083B3002057F2D02083B7F24
:100B0F00202008F87F2B2006F322920280CF286E38
:100B1F00756C6C2900D2011208003001F8C20178FF
:100B2F003230D50108F60208A62D50434958120855
:100B3F00002403B405004001E4900B389312082CF5
:0D0B4F00743A12082CD20375320402098B8F
:100D7B00020EE5E493A3F8E493A34003F68001F29B
:100D8B0008DFF48029E493A3F85407240CC8C33379
:100D9B00C4540F4420C8834004F456800146F6DF48
:100DAB00E4800B0102040810204080901279E47E4D
:100DBB00019360BCA3FF543F30E509541FFEE4933D
:100DCB00A360010ECF54C025E060A840B8E493A304
:100DDB00FAE493A3F8E493A3C8C582C8CAC583CA2F
:100DEB00F0A3C8C582C8CAC583CADFE9DEE780BEE7
:01127E00006F
:100CFA00BB010CE58229F582E5833AF583E02250AF
:100D0A0006E92582F8E622BBFE06E92582F8E222F8
:0D0D1A00E58229F582E5833AF583E4932212
:100D2700BB010689828A83F0225002F722BBFE01AB
:020D3700F322A5
:100D3900FAE6FB0808E6F925F0F618E6CA3AF622BB
:100D4900D083D082F8E4937012740193700DA3A339
:100D590093F8740193F5828883E47374029368604D
:060D6900EFA3A3A380DF4D
:1010D800EFB40A07740D1210E3740A309811A89936
:1010E800B8130CC2983098FDA899C298B811F63078
:0710F80099FDC299F5992250
:00000001FF
