:100000000C9491040C94B9040C94B9040C94B904A4
:100010000C94B9040C94B9040C94B9040C94B9046C
:100020000C94B9040C94B9040C94B9040C94B9045C
:100030000C94B9040C94B9040C94B9040C94B9044C
:100040000C94BC160C94B9040C94B9040C94B90427
:100050000C94B9040C94B9040C94B9040C94B9042C
:100060000C94B9040C94B90405A84CCDB2D44EB983
:100070003836A9020C50B9918688083CA6AAAA2A4B
:10008000BE000000803F1E6C0A0E206000010308C5
:10009000070A080103030507010401040603060615
:1000A0000706060606060101060606060D090708EC
:1000B00008070709070105080709070907090807CD
:1000C0000707090D080908020402050802060605CB
:1000D00006060406060102060109060606060405D0
:1000E000040607090607060301030707FE141E009E
:1000F0001E0000009090F89690F89690001C00006A
:100100001C000000182422FF4242840810103C10FA
:1001100008041C22221CC0308C4240800000100CBD
:1001200000000C10100C805C2262920C80000C10FD
:100130001010100C08101E00F00C021C6080020C45
:10014000F080601C04140E14040000000000404005
:1001500040F84040400000000C000000007080802B
:10016000808000000000001000C038061804000065
:10017000FC02020202FC0C101010100C0804FE001D
:10018000001C0C020282423C1018141010100C02C9
:10019000222222DC0C101010100C8040300804FECB
:1001A0000004040404041C043816121212E20C1099
:1001B00010101804F844222222C40C101010100C45
:1001C000020202E21A0600001C000000DC222222C9
:1001D00022DC0C101010100C3C42424222FC081091
:1001E000101008040810087040A0A01010080000AB
:1001F000000404089090909090900000000000008F
:10020000081010A0A0400804040000000C02824264
:10021000221C000014000000E01804C42212121274
:10022000A2720408F00C30404C909090889C905042
:100230004C200080E09C829CE080001804000000BC
:1002400000000418FE2222222222DC1C10101010B2
:10025000100CF80402020202040804081010101026
:100260000804FE020202020204F81C101010101012
:100270000804FE2222222222221C1010101010102C
:10028000FE2222222222021C000000000000F804AC
:10029000020202424244C804081010101010080460
:1002A000FE2020202020FE1C00000000001CFE1C60
:1002B00000000000FE0C1010100CFE804020508842
:1002C00004021C00000000040810FE0000000000F2
:1002D000001C101010101010FE0C30C000C0300CAC
:1002E000FE1C000004180400001CFE0418608000BE
:1002F000FE1C00000004081CF804020202020204B2
:10030000F8040810101010100804FE424242424245
:100310003C1C000000000000F8040202020202047B
:10032000F8040810101014081C10FE424242C24289
:10033000423C1C000000000408101C222222424201
:100340008C0C10101010100C020202FE02020200AF
:1003500000001C000000FE0000000000FE04081069
:100360001010080406186080008060180600000065
:100370000418040000000638C000C03C023CC00065
:10038000C03806000004180400000004180400002F
:10039000020C906060900C02100C000000040C1025
:1003A00002041820C020180402000000001C0000F5
:1003B000000000028242221A0602101814101010C7
:1003C0001010FE02FC800638C0000000041802FE77
:1003D00080FC201C021C2000000000000000000027
:1003E0000000000080808080808080800204000007
:1003F0001088484848F00C101010081CFE1008081F
:1004000008F01C081010100CF0080808100C101050
:100410001008F008080810FE0C101010081CF04816
:10042000484848700C101010100808FC0A0A001CFC
:100430000000F008080810F84C909090887CFE109E
:10044000080808F01C000000001CFA1C00FA807C60
:10045000FE8040A010081C0000000C10FE1CF810CC
:100460000808F0100808F01C0000001C0000001C28
:10047000F810080808F01C000000001CF00808082C
:1004800008F00C101010100CF810080808F0FC0808
:100490001010100CF008080810F80C10101008FCD0
:1004A000F81008081C000000304848489008101058
:1004B000100C08FE0808001C1010F800000000F8DE
:1004C0000C101010081C18608000806018000004D8
:1004D0001804000018E000E018E000E0180004181C
:1004E0000400041804000830C0C03008100C0000DC
:1004F0000C101860800080601800808C700C000068
:10050000080888681808101814101010807C020061
:100510007C80FEFC027C80807C004020206040408B
:100520002000000000000000FC0404040404FC1C83
:1005300010101010101C00000507206000000000C3
:100540000000005F00000007000700147F147F1404
:10055000242A7F2A12231308646236495522500048
:1005600005030000001C2241000041221C00082A53
:100570001C2A0808083E0808005030000008080837
:100580000808006060000020100804023E51494540
:100590003E00427F400042615149462141454B3176
:1005A0001814127F1027454545393C4A4949300106
:1005B000710905033649494936064949291E00365D
:1005C00036000000563600000008142241141414AE
:1005D00014144122140800020151090632497941DC
:1005E0003E7E1111117E7F494949363E41414122EB
:1005F0007F4141221C7F494949417F090901013E50
:10060000414151327F0808087F00417F410020406E
:10061000413F017F081422417F404040407F020457
:10062000027F7F0408107F3E4141413E7F09090956
:10063000063E4151215E7F09192946464949493103
:1006400001017F01013F4040403F1F2040201F7FAC
:100650002018207F63140814630304780403615195
:1006600049454300007F4141020408102041417F79
:100670000000040201020440404040400001020426
:100680000020545454787F4844443838444444202B
:10069000384444487F3854545418087E09010208ED
:1006A0001454543C7F0804047800447D40002040EA
:1006B000443D00007F10284400417F40007C041826
:1006C00004787C0804047838444444387C141414B6
:1006D00008081414187C7C08040408485454542056
:1006E000043F4440203C4040207C1C2040201C3CD7
:1006F0004030403C44281028440C5050503C446446
:10070000544C44000836410000007F000000413690
:10071000080008082A1C08081C2A08084040000095
:1007200000000000000080402020202020408000A9
:1007300000000000000000000000C0E0E0E0C00099
:100740000000000000000000000080000000000029
:100750000000000000000000000000000000000099
:10076000000000001C638000007F3E1C08008063C6
:100770001C000000000000C0F8FFFF7F0F7FFFFF9C
:10078000F8C000000000008040203F2040800000B2
:100790000000000000000000000000000000000059
:1007A0000000000000C020118A8A8A8A8A1120C0B5
:1007B0000000000080F0FEFFFFFFE3E0E0E0E3FF69
:1007C000FFFFFEF08000008142242424428528207F
:1007D00038000000000000000000000000000000E1
:1007E00000000000071820408F8888888F4020185C
:1007F000070060FCFFFF3F0701010101010101014A
:1008000001073FFFFFFC60010204FC24222120209D
:100810002020202020202020202020202020404098
:10082000404040700C30C000C0300C30C000C030C0
:100830000808884828283820204080402010209828
:1008400018C0C0000000203050488F800000000019
:100850000000000000000000000000000000000098
:100860000000000000000003000000000001000084
:100870001C6380464A5262524A4680631C02010051
:1008800001000000000008081414A2A24141000069
:100890000000000000000000000000000000000058
:1008A0000000000000000000000000000000000048
:1008B000000000010202FE02020100000000000030
:1008C000000000000000020205FD00000000000022
:1008D0000000000000000000000000000000000018
:1008E0000000000000000000000000000000000008
:1008F000000000020A0A2B0A0A02000000000000A1
:1009000000000000000002020A2B0A0202000000A0
:100910000000000000000000000000000000BB0418
:10092000840D11241FBECFEFD8E0DEBFCDBF11E094
:10093000A0E0B1E0EEEBF6E302C005900D92A83A1C
:10094000B107D9F712E0A8EAB1E001C01D92A031C9
:10095000B107E1F719E0C2E2D9E004C02297FE0135
:100960000E94591BCE31D107C9F70E94A6170C94DB
:100970005D1B0C940000CF92EF92FF920F931F9398
:100980008AEA91E00E948E1607EB11E0C8010E94EE
:100990008E16C8010D960E948E16C8014A960E94B6
:1009A0008E168EED91E060E440E221E001E036E851
:1009B000E32E30E0F32ECC240E944F161F910F91AE
:1009C000FF90EF90CF9008952F923F924F925F92B9
:1009D0006F927F928F929F92AF92BF92CF92DF924F
:1009E000EF920F931F93DF93CF9300D000D0CDB73A
:1009F000DEB78C0183EF91E060E00E94140B0E944F
:100A0000041769837A838B839C83F5E4CF2ED12CE2
:100A1000E0E22E2E312C71E0872E912C61E0A62E83
:100A2000B12C28016624772436C0C1010597C697EA
:100A300020F09094819491089394C601049787378D
:100A4000910520F0B094A194B108B3946C2D422D7F
:100A50002C2D2C5F022D0C5F83EF91E065504550EB
:100A6000EE240E940B0BC501880F991FC80ED91EDA
:100A7000C401880F991F280E391E83EF91E06C2D59
:100A8000422D24E00FEF0E94F70C6EE170E080E051
:100A900090E00E9412170E94041729813A814B812D
:100AA0005C81621B730B840B950B641575058605C1
:100AB000970508F4BACF0F900F900F900F90CF9139
:100AC000DF911F910F91EF90DF90CF90BF90AF908B
:100AD0009F908F907F906F905F904F903F902F905E
:100AE0000895AF92BF92CF92DF92EF92FF920F9351
:100AF0001F937B018C012AE939E949E95FE30E94F0
:100B0000671A0E94A5195B016C01C801B70126E6AE
:100B100036E646E450E40E94671A0E94CA1A7B0136
:100B20008C01C601B50120E030E048EF51E40E949D
:100B3000671AA80197010E94671A20E030E040E0A0
:100B400052E40E9441190E94A819DC01CB011F91B7
:100B50000F91FF90EF90DF90CF90BF90AF900895EE
:100B6000AF92BF92CF92DF92EF92FF920F931F93BB
:100B70007B018C0126E636E646EE5FE30E94671AAB
:100B80000E94CA1A5B016C01C801B7012DEC3CEC54
:100B90004CE450E40E94671A0E94A5197B018C0165
:100BA000C601B50120E030E04CE752E40E94671A2C
:100BB000A80197010E94671A20E030E040E852E463
:100BC0000E9441190E94A819DC01CB011F910F91CD
:100BD000FF90EF90DF90CF90BF90AF9008954F922D
:100BE0005F926F927F928F929F92AF92BF92DF92AD
:100BF000EF92FF920F931F93DF93CF9300D000D01B
:100C0000CDB7DEB78C010E94041769837A838B838A
:100C10009C830F2EF0E08F2EF0E09F2EF0E0AF2EA1
:100C2000F0E0BF2EF02D28016624772432C0C501E4
:100C3000B40120E030E040E05CE30E9441194B0148
:100C40005C0120E030E040E050E40E9440197B016C
:100C50008C01C501B4010E94B005D82EC501B401B4
:100C60000E947105482F83EF91E06D2D2FEF0E94B8
:100C7000CF0FB701C8010E94B005D82EB701C80137
:100C80000E947105482F83EF91E06D2D20E00E94B6
:100C9000CF0F0E94041729813A814B815C81621B2E
:100CA000730B840B950B641575058605970508F481
:100CB000BECF0F900F900F900F90CF91DF911F91AB
:100CC0000F91FF90EF90DF90BF90AF909F908F902B
:100CD0007F906F905F904F900895CF92DF92EF9248
:100CE000FF920F931F93CF93DF9383EF91E060E028
:100CF0000E94140B87EB91E04FE15FE360E070E04E
:100D000020E00E94CE1087EB91E066E375E040E0C2
:100D100023EC3AE00E94101187EB91E060E040E0A4
:100D20000E94DA1084EC91E04FE15FE760E070E44C
:100D300021E00E94CE1084EC91E066E375E04FEF75
:100D400023EC3AE00E94101184EC91E060E040E076
:100D50000E94DA1081ED91E04FE35FE760E270E01E
:100D600020E00E94CE1081ED91E066E870E04FEF48
:100D700023EC3AE00E94101181ED91E060E040E048
:100D80000E94DA10EE24FF24BDE0CB2ED12C1AC035
:100D9000CE01602F40E050E00E94EF180F5F0F3748
:100DA000B9F76091880170918901882777FD809556
:100DB000982F0E9412170894E11CF11C83E0E8169A
:100DC000F10459F0EC9CE001ED9CD00DFC9CD00DA1
:100DD0001124C954DE4F00E4DBCF00E287EB91E041
:100DE000602F40E050E00E94EF1884EC91E0602F0B
:100DF00040E050E00E94EF1881ED91E0602F40E06C
:100E000050E00E94EF186091880170918901882755
:100E100077FD8095982F0E9412170F5F0F37F1F61C
:100E200087EB91E00E941C1184EC91E00E941C1160
:100E300081ED91E00E941C11EE24FF24ADE0CA2E4A
:100E4000D12C25C0CC9D8001CD9D100DDC9D100DB9
:100E5000112409541E4FC80160E071E00E94E4179C
:100E6000C801B7014AE050E00E94251962E370E032
:100E700080E090E00E9412172196C330D10511F74F
:100E80000894E11CF11C8FE0E816F10419F0C0E0B1
:100E9000D0E0D8CF68EE73E080E090E00E941217B7
:100EA000DF91CF911F910F91FF90EF90DF90CF9046
:100EB0000895CF93DF93EC0112C021978EED91E05E
:100EC0000E941C118EED91E0BE014AE050E00E94AC
:100ED000DC1868EE73E080E090E00E941217209723
:100EE00061F7DF91CF9108950F931F93CF93DF9315
:100EF0008C01C1E0D0E01CC08AEA91E066E071E0BC
:100F00000E94E4178AEA91E0BE014AE050E00E94A4
:100F1000DC188AEA91E00E940319609188017091BF
:100F20008901882777FD8095982F0E9412172196B6
:100F30000C171D070CF7DF91CF911F910F910895AA
:100F40008F929F92AF92BF92CF92DF92EF92FF92D9
:100F50000F931F935B016C014A0113EFE12E11E027
:100F6000F12EC70160E00E94140B6091A8017091FE
:100F7000A901C70140E020E00FEF0E942A0B609119
:100F8000A8017091A901C70140E420E00E942A0B4A
:100F90000AEA11E0C801B601A50120E00E94CE10C6
:100FA000C80166E375E04FEF23EC3AE00E941011B0
:100FB000C80160E00E941911C8010E941C11C801FB
:100FC000B4010E941A19C8016EE071E00E94E41792
:100FD00068EE73E080E090E00E941217C80160E0C4
:100FE0000E941911C8010E941C118AE090E00E9421
:100FF000740768EE73E080E090E00E941217C80169
:101000000E941C11C8016FEF0E9419118AE090E044
:101010000E94740768EE73E080E090E00E9412176F
:101020001F910F91FF90EF90DF90CF90BF90AF9006
:101030009F908F9008956FE37FE780E090E048E114
:1010400051E00E94A0076FE17FE780E090E04DE172
:1010500051E00E94A0076FE37FE780E290E041E269
:1010600051E00E94A0076FE37FE780E090E448E250
:1010700051E00E94A0076FE37FE380E090E04EE242
:1010800051E00E94A0076FE17FE380E090E043E33E
:1010900051E00E94A0076FE17FE780E090E44CE31D
:1010A00051E00E94A0076FE37FE380E290E046E416
:1010B00051E00E94A0076FE37FE780E290E44FE4F5
:1010C00051E00E94A0070895EF920F93362F542FFE
:1010D00090E08770907083309105A9F1843091057C
:1010E0004CF481309105D9F08230910514F5892BAB
:1010F00071F05DC085309105C1F1853091056CF1CD
:1011000086309105E1F1079709F051C042C0042FE4
:10111000085F83EF91E05850452F232F44C0262FBE
:101120002350042F095F83EF91E03D5F632F5750F9
:1011300039C0262F2650042F0A5F83EF91E03A5FD3
:10114000632F56502FC0262F2750042F0D5F83EF9B
:1011500091E0395F632F535025C0262F285083EF2D
:1011600091E0385F632F052F1EC0262F2750042FD4
:10117000035083EF91E0395F632F5D5F13C0262F2B
:101180002650042F065083EF91E03A5F632F5A5F99
:1011900009C0262F2350042F075083EF91E03D5FB5
:1011A000632F595F452FEE24EA940E94830C0F9120
:1011B000EF900895AF92BF92CF92EF920F931F934B
:1011C0008C015B0183EF91E060E00E94140B83EFE0
:1011D00091E060E040E00E94DA1083EF91E0B80116
:1011E0000E94E41783EF91E062E440E02DE30FE317
:1011F00035E0E32ECC24CA940E948C0B8AEA91E05D
:1012000065E443E02DE70BE3EE240E945F108AEAD9
:1012100091E0B5014FEF23EC3AE00E9410118AEA09
:1012200091E060E040E00E94DA1000E28AEA91E09A
:10123000602F40E050E00E94EF1864E170E080E031
:1012400090E00E9412170F5F0F3781F71F910F91E7
:10125000EF90CF90BF90AF9008956F927F928F9252
:101260009F92AF92BF92CF92EF920F931F93E3EFB3
:10127000AE2EE1E0BE2E6091A8017091A901C501DA
:1012800040E220E00FEF0E942A0B83E090E00E94F2
:101290005907C50160E00E94140B76E8672E70E0E4
:1012A000772E63EC862E6AE0962EC501B3014FEFD0
:1012B00094010E941011C50164E143E00E940711EE
:1012C000C50169E571E00E94E417C50163E070E0C3
:1012D0004AE050E00E94DC18C50168E040E02DE6DD
:1012E00001E155E0E52ECC24CA940E948C0B83E0EA
:1012F00090E00E945907C50160E00E94140B88E845
:1013000093E10E94EF0580E797E10E94E40406E381
:1013100015E0C501B8014FEF94010E94101187E656
:1013200091E0B8010E94DA0883E090E00E9459073A
:1013300081E791E0B3010E94DA0883E090E00E9427
:1013400059070E941B080E946D061F910F91EF9094
:10135000CF90BF90AF909F908F907F906F900895A7
:10136000AF92BF92CF92DF92EF92FF920F931F93B3
:101370001092F2011092F1010E9404176093EB01A8
:101380007093EC018093ED019093EE0152C083EFD6
:1013900091E060E040E020E40FE3EE24EA940E9454
:1013A000DE0A83EF91E062E440E02DE3F5E0EF2E0A
:1013B000CC24CA940E948C0B10E083EF91E061E092
:1013C00041E02FE3012FEE24EA940E94830C1C5F7E
:1013D000103499F783EF91E060E24FE12EE10FEFD7
:1013E0000E946F0C83EF91E068E548E220E100E1A4
:1013F000EE240E940B0B8091EF019091F001019679
:101400009093F0018093EF01019760E640E30E9422
:10141000640883EF91E060E240E30E94071160916D
:10142000F1017091F20183EF91E04AE050E00E94F7
:1014300095188091F1019091F20101969093F2013B
:101440008093F10101970A9708F4A1CF0E94041735
:101450005B016C018091EB019091EC01A091ED0199
:10146000B091EE01A81AB90ACA0ADB0A60E177E274
:1014700080E090E0A60195010E94351B2AE030E053
:1014800040E050E00E94161B7B018C01C601B501B3
:101490000E94351BC801B7010E94351B890183EFEB
:1014A00091E060E00E94140B83EF91E060E549E079
:1014B0000E94071183EF91E06BE771E00E94E4174F
:1014C00083EF91E063E070E04AE050E00E94DC18B6
:1014D00083EF91E064E448E10E94071183EF91E01B
:1014E00061E871E00E94E41760E177E280E090E05B
:1014F000A60195010E94351B83EF91E0B9014AE0F6
:1015000050E00E94DC1883EF91E066E871E00E94F1
:10151000E4170A30110544F483EF91E060E070E0D5
:101520004AE050E00E94DC1883EF91E0B8014AE005
:1015300050E00E94DC181F910F91FF90EF90DF9018
:10154000CF90BF90AF9008950F931F9303EF11E0DA
:10155000C80160E00E94720D8CE197E09093A901B0
:101560008093A8010E942D09C80160E00E94140B1D
:10157000C80166E375E04FEF23EC3AE00E941011DA
:101580001F910F910895FC0184910895EF920F939C
:10159000342FE02E260F032F0E94290F0F91EF907A
:1015A0000895EF920F93562F322FE02E340F252FF0
:1015B000032F0E94290F0F91EF900895AF92BF92D1
:1015C000CF92DF92EF92FF920F931F936C01F62E52
:1015D000B42E122FA02E0E2D0E94C60A4A2D4B0D9E
:1015E000C6016F2D212F0E94C60AC6016F2D4B2DFB
:1015F0002A2D0E94D10A1F0DC601612F4B2D2A2DC5
:101600000E94D10A1F910F91FF90EF90DF90CF9031
:10161000BF90AF900895EF920F93260F040F0E9492
:10162000290F0F91EF900895CF92DF92EF920F93D1
:101630006C01E62E60E040E02FE70FE30E94290FE7
:10164000C60160E040E00E9407110F91EF90DF902B
:10165000CF9008956F927F928F929F92AF92BF9298
:10166000CF92DF92EF92FF920F931F93CF93DF936E
:10167000B82EC92EFB01742ED22E602EEB012196BE
:10168000A490FE01F4908F2D90E030E0822B932BFC
:1016900087709070892B49F08B2D9C2D642F4D2DD8
:1016A0002A2D0F2DEE240E940B0B8E010F5F1F4F72
:1016B000EF2CE694E694E694FF248A2C99241BC030
:1016C0008B2D9C2D672D4D2D0E94F90DE8010AC030
:1016D000FE016491FFEF6F1260958B2D9C2D0E948F
:1016E000550E21969E01201B2A1590F3080D191DF9
:1016F000F39438E0D30EFE1418F3DF91CF911F91CD
:101700000F91FF90EF90DF90CF90BF90AF909F90A0
:101710008F907F906F9008952F923F924F925F929B
:101720006F927F928F929F92AF92BF92CF92DF92F1
:10173000EF92FF920F931F93DF93CF93CDB7DEB756
:101740002A970FB6F894DEBF0FBECDBFD82EB92EA4
:10175000262E342E2F8308878E2D90E0880F991F18
:1017600022273327281B390B3E832D832D5F3F4FC4
:101770003A8729875E2C520C4E2C440E3F81320D45
:101780003C833E193983802F840F8A838E198B8383
:10179000652C742C832E982EAA24142D1E198D2DA1
:1017A0009B2D662D412F2C2D0E94CF0FF52CFE185E
:1017B0008D2D9B2D6F2D472D2C2D0E94CF0F8D2D04
:1017C0009B2D682D412F2C2D0E94CF0F19811E0DAE
:1017D0008D2D9B2D612F472D2C2D0E94CF0F0B811E
:1017E0000E0D8D2D9B2D682D402F2C2D0E94CF0F7F
:1017F0008D2D9B2D612F492D2C2D0E94CF0F8D2DCE
:101800009B2D662D402F2C2D0E94CF0F8D2D9B2DB3
:101810006F2D492D2C2D0E94CF0F8A2D90E0E98548
:10182000FA85F7FF0AC03696880F991F880F991F0F
:10183000E80FF91FFA87E9870FC029853A85265FE7
:101840003F4F8E199109880F991F880F991F280FF4
:10185000391F3A872987EA94A3946A947A948394E7
:101860009394EA1408F099CF1D81FF80F10E8D2D1D
:101870009B2D652D432D2F2D0C2D0E94C60A8D2DDD
:101880009B2D652D4A812F2D0E94C60A3885130F86
:101890008D2D9B2D622D442D212F0E94D10A8D2D3F
:1018A0009B2D6C81442D212F0E94D10A2A960FB6C0
:1018B000F894DEBF0FBECDBFCF91DF911F910F9186
:1018C000FF90EF90DF90CF90BF90AF909F908F9060
:1018D0007F906F905F904F903F902F900895CF92A0
:1018E000EF920F931F93E22EC02E022F10E0000FF5
:1018F000111F621B421B202F0E948C0B1F910F9106
:10190000EF90CF9008957F928F929F92AF92BF9267
:10191000CF92DF92EF92FF920F931F93782E892E32
:10192000F22E9E2C242F30E0802F90E0041720F41C
:10193000F901E81BF90B03C0FC01E21BF30B262F96
:1019400030E08F2D90E0F61628F4D901A81BB90BD2
:10195000CD0102C0821B930BAA248E179F0744F46B
:10196000AA24A394842F462F682F802F0F2DF82EA2
:10197000F61630F48F2DF62E682F802F042F482F67
:10198000BF2CB61A401728F4C02EC41A401730F0E6
:1019900002C0C42EC01ADD24DA9402C0DD24D39420
:1019A0001B2D1695062FE42E14C0AA2029F0872D92
:1019B000982D6E2D402F04C0872D982D602F4E2D11
:1019C000292D0E94CF0F1C1917FF02C0ED0C1B0D13
:1019D0000F5FF01650F71F910F91FF90EF90DF907F
:1019E000CF90BF90AF909F908F907F9008953F923F
:1019F0004F925F926F927F928F929F92AF92BF921F
:101A0000CF92DF92EF92FF920F931F93CF93DF93CA
:101A10005C01462E542E122F302E822F90E0C1E012
:101A2000D0E0C81BD90B880F991F66247724681A49
:101A3000790A421B022F050DC501242DE32C0E94BB
:101A4000830CC12EE1E08E2E912CDD2437C0D7FD12
:101A500007C0CA9482E090E0680E791EC60DD71DBB
:101A6000D39482E090E0880E991EC80DD91D1C2DDC
:101A7000150D2D2D240DF52CFC18C501622F412FBD
:101A80000F2DE32C0E94830C242D2D19C501622FEC
:101A9000412F0E94830C1D2D150D2C2D240DF52C8E
:101AA000FD18C501622F412F0F2D0E94830C242D9C
:101AB0002C19C501622F412F0E94830CDC1438F2CF
:101AC000DF91CF911F910F91FF90EF90DF90CF901A
:101AD000BF90AF909F908F907F906F905F904F904E
:101AE0003F9008950E94061008950F931F938C0154
:101AF0000E94A5168EE891E0F801918380831092F0
:101B000000021F910F91089583EF91E00E94750DDF
:101B10000895FC0188E991E0918380830895613004
:101B200019F44098419A02C0409A419884B1807F4C
:101B300084B98AB18F708AB985B18F6085B98BB14C
:101B4000806F8BB94398429A449AC89500C093B16C
:101B500089B14498807F9F70892B0895613019F472
:101B60004098419A02C0409A419884B1807F84B9DC
:101B70008AB18F708AB94398429A449AC89500C036
:101B80004F99FECF44980895609101026295669541
:101B9000669563700E94AE0D439A429A00C0449AC3
:101BA000C89500C093B189B14498807F9F70892BFC
:101BB00008951F93162F642F0E94AE0D43984298EC
:101BC00084B18F6084B98AB1806F8AB985B1912F51
:101BD0009F70807F982B95B98BB1107F8F70812B70
:101BE0008BB900C0449AC895C895000044981F91CD
:101BF00008950F931F93CF93DF93EC01162F8091DD
:101C00000102681721F480910202481729F117FD9B
:101C100023C0403408F51093010240930202012FC3
:101C20000295069506950370642F669566956695F0
:101C3000E02FF0E0ED5FFD4F8081681731F06083A9
:101C4000686BCE01402F0E94D90D1F731064CE0126
:101C5000612F402F0E94D90DDF91CF911F910F91DD
:101C600008950F931F93CF93DF93EC01009101022E
:101C700007FF02C010E013C00E94C40DCE010E94F5
:101C8000C40D182F80910002811110958FEF809361
:101C90000102CE01602F409102020E94F90D812FB6
:101CA000DF91CF911F910F910895BF92CF92DF9254
:101CB000EF92FF920F931F93CF93DF93EC01062FC8
:101CC0006091010267FDBBC0B62EB294B694B69483
:101CD00083E0B822F090020287E0F82209F478C08D
:101CE000CE010E94310E182FCE016B2D0E94AE0D39
:101CF000439A429884B18F6084B98AB1806F8AB95F
:101D000000C0449AC02EDD24EF2CFF24C6010E2C07
:101D100002C0880F991F0A94E2F7182B80910002E5
:101D20008111109585B1912F9F70807F982B95B967
:101D30008BB1107F8F70182B1BB9C895C895000008
:101D4000449800910202802F90E00896887F8034AA
:101D500091050CF037C0402F485F487FCE0160915D
:101D600001020E94F90DCE010E94310E182FCE0102
:101D70006B2D0E94AE0D439A429884B18F6084B956
:101D80008AB1806F8AB900C0449A88E090E08E19C9
:101D90009F0902C0D594C7948A95E2F71C298091C7
:101DA00000028111109585B1912F9F70807F982B33
:101DB00095B98BB1107F8F70182B1BB9C895C8953A
:101DC00000004498609101026F5FCE01402F35C042
:101DD000CE016B2D0E94AE0D439A429884B18F6064
:101DE00084B98AB1806F8AB980910002811100950F
:101DF00000C0449A85B1902F9F70807F982B95B931
:101E00008BB1007F8F70802B8BB9C895C89500006F
:101E10004498609101026F5F60930102862F829562
:101E20008695869583708B1551F067FD08C08FEFFE
:101E300080930102CE01409102020E94F90DDF91D0
:101E4000CF911F910F91FF90EF90DF90CF90BF90B7
:101E500008957F928F929F92AF92BF92CF92DF921E
:101E6000EF92FF920F931F93CF93DF93EC01962E87
:101E70007E2C81E0C82EC41AC00EA82EA61AA20E6F
:101E8000542F5770D42ED51AEC2CFF24652F70E0F8
:101E900028E030E0C901861B970BE816F9065CF4D0
:101EA0002E193F098FEF90E002C0959587952A95EE
:101EB000E2F71C2D03C018E0151B8FEF90E002C065
:101EC000880F991F6A95E2F7B82ECE01692D4D2D26
:101ED0000E94F90D00E08B2C80940FC0CE010E946F
:101EE000310E9FEF791619F4682F6B2902C0682F05
:101EF0006821CE010E94550E0F5F0A1578F311C0BC
:101F000088E0D80ECE01692D4D2D0E94F90D00E01C
:101F100005C0CE01672D0E94550E0F5F0A15C8F34C
:101F2000185F212F30E0C90107968E159F0544F3F5
:101F30001C1538F5E21AF30A8FEF90E002C0880F03
:101F4000991FEA94E2F7082F009598E0D90ECE0188
:101F5000692D4D2D0E94F90D10E0F02EF0940FC068
:101F6000CE010E94310E9FEF791619F4682F602B75
:101F700002C0682F6F21CE010E94550E1F5F1A15F7
:101F800078F3DF91CF911F910F91FF90EF90DF9049
:101F9000CF90BF90AF909F908F907F9008950F93B8
:101FA0001F93CF93DF93EC01142F022F67FD28C0FE
:101FB000403430F5487F0E94F90DCE010E94310E69
:101FC000282F412F50E00F3F61F44770507081E09F
:101FD00090E002C0880F991F4A95E2F7622F682BA4
:101FE0000CC04770507081E090E002C0880F991FCC
:101FF0004A95E2F7682F60956223CE010E94550E44
:10200000DF91CF911F910F9108950895EF92FF9264
:102010000F931F93CF93DF93EC013B9A3A9A3C9A2C
:102020004498389A4098399A4198439842988FEF4B
:1020300080930102809302026093000262E370E0E9
:1020400080E090E00E94121793E0E92E92E0F92ED2
:1020500000E01FEFCE01602F0E948F0D84FF03C0B0
:1020600022E030E024C087FF03C021E030E01FC041
:10207000F70111937F01CE016FE3402F0E94D90D2C
:10208000CE0160EC402F0E94D90D0F5F023011F796
:10209000CE0160E040E02FE70FE3EE240E94290F1D
:1020A000CE0160E040E00E94F90D20E030E0C9017F
:1020B000DF91CF911F910F91FF90EF900895EF92D4
:1020C0000F93FC01621750F4401740F467FD06C0FF
:1020D000403420F427FD02C007FF09C01582168294
:1020E0008FE787838FE38087118680E006C0658352
:1020F000468327830087E18681E0628743871486D1
:102100000F91EF9008957F928F929F92AF92BF921E
:10211000CF92DF92EF92FF920F931F935C01D62E26
:10212000942E822E702EC701EC2CF50194838383AC
:1021300023EC3AE030930602209305022FEF22832E
:1021400002960E94C30A182FF50183819481E091C1
:102150000502F091060203960995DA941F5F189D17
:10216000102D11241D0DD3949A94082F0F5F079DF5
:10217000002D1124090D9394C5016D2D492D212F9A
:102180000E945F101F910F91FF90EF90DF90CF9012
:10219000BF90AF909F908F907F900895EF920F9394
:1021A000042F462F672FE22E252F0E945F100F91DC
:1021B000EF9008950F931F93CF93DF93EC01162FA9
:1021C000042F8B819C810097E9F0E0910502F0914A
:1021D0000602029609958F5F819F802D11249D81B3
:1021E000890F8A878B819C81E0910502F09106021C
:1021F000039609958F5F809F802D11249E81890F02
:102200008B871C86DF91CF911F910F910895FC0160
:102210008581860F82878681840F8387148608953F
:10222000FC0174836383309306022093050242838A
:102230000895FC0162830895EF920F93CF93DF938B
:10224000EC016D814E812F8108858A818F3F11F0CD
:102250003FEF01C030E0CE01E32E0E94290F8D81B7
:102260008A878E818B871C86DF91CF910F91EF90AB
:1022700008952F923F924F925F926F927F928F922A
:102280009F92AF92BF92CF92DF92EF92FF920F9305
:102290001F93DF93CF9300D000D00F92CDB7DEB75E
:1022A000F82ED92E542E222EA02E7E2C3C2C202F00
:1022B00030E0842F90E08E0D911D28173907F4F03F
:1022C000277030702F5F3F4F81E090E002C0880F91
:1022D000991F2A95E2F7282F21952983B62E302FB2
:1022E000387F3A83402E4E18842D887F8B8381E07F
:1022F000882E912C662463946E18B5C08F2D9D2D69
:10230000222DEC2C0E94290FB1C08F2D9D2D6B2DFD
:102310004A810E94F90D8F2D9D2D0E94310E098159
:102320000823142D8F2D9D2D6B2D4B810E94F90DAF
:102330008F2D9D2D0E94310EE82ECA2C3BC08E2D74
:1023400090E0212F277002C0959587952A95E2F796
:1023500080FF09C08C2D8770F40102C0EE0FFF1FB3
:102360008A95E2F70E2B8C2D90E087709070892B68
:1023700069F44C2D487F8F2D9D2D6B2D0E94F90DFA
:102380008F2D9D2D602F0E94550E00E0CA941123C1
:1023900099F01150812F8770873061F4412F487F69
:1023A0008F2D9D2D6B2D0E94F90D8F2D9D2D0E943F
:1023B000310EE82E151518F61C2DE72C2FC0812F95
:1023C00090E0FFEF3F1651F487709070940102C0C7
:1023D000220F331F8A95E2F7022B0BC08770907093
:1023E000F40102C0EE0FFF1F8A95E2F7CF0180953E
:1023F0000823812F90E087709070892B69F4412F1A
:10240000487F8F2D9D2D6B2D0E94F90D8F2D9D2DB9
:10241000602F0E94550E00E01150EA94EE2079F6EC
:10242000462D4C0D242F30E0277030703D832C83D7
:10243000232BC1F0487F8F2D9D2D6B2D0E94F90D10
:102440008F2D9D2D0E94310EB4010C8002C0660FAD
:10245000771F0A94E2F761506823602B8F2D9D2D22
:102460000E94550EB3942B1408F04FCF0F900F908D
:102470000F900F900F90CF91DF911F910F91FF90D0
:10248000EF90DF90CF90BF90AF909F908F907F9014
:102490006F905F904F903F902F9008952F923F92B2
:1024A0004F925F926F927F928F929F92AF92BF9264
:1024B000CF92DF92EF92FF920F931F93DF93CF9310
:1024C00000D0CDB7DEB7F82ED92EA42E322E602E36
:1024D0007E2C4C2C50E09A012E0D311D802F90E067
:1024E00082179307CCF04770507081E090E002C0F3
:1024F000880F991F4A95E2F7282F21502983E62E4D
:102500003A2D387F3A83572C5A0C28EF222E25205B
:1025100091E0892E912CB3C08F2D9D2D4A2D232D16
:10252000EC2C0E94290FAEC08F2D9D2D6E2D4A815F
:102530000E94F90D8F2D9D2D0E94310EC980C82259
:10254000052D8F2D9D2D6E2D422D0E94F90D8F2D65
:102550009D2D0E94310EB82E1A2D3BC08B2D90E080
:10256000202F277002C0959587952A95E2F780FF66
:1025700009C0812F8770F40102C0EE0FFF1F8A95FA
:10258000E2F7CE2A0F5F802F90E087709070892B42
:1025900071F4003460F4402F487F8F2D9D2D6E2DF7
:1025A0000E94F90D8F2D9D2D0E94310EB82E812F86
:1025B0008770873069F4412F487F8F2D9D2D6E2DB8
:1025C0000E94F90D8F2D9D2D6C2D0E94550ECC244F
:1025D0001F5F601618F6B12E072D2DC0812F90E0D9
:1025E000FFEF4F1651F487709070940102C0220FD4
:1025F000331F8A95E2F7C22A0BC087709070F401EE
:1026000002C0EE0FFF1F8A95E2F7CF018095C82226
:10261000812F8770873069F4412F487F8F2D9D2D42
:102620006E2D0E94F90D8F2D9D2D6C2D0E94550E43
:10263000CC241F5F0150002389F64B2D470D042F3A
:1026400010E00770107001151105C1F04150487F6E
:102650008F2D9D2D6E2D0E94F90D8F2D9D2D0E9489
:10266000310EB40102C0660F771F0A95E2F761953B
:1026700068236C298F2D9D2D0E94550EE3943E14E6
:1026800008F052CF0F900F90CF91DF911F910F91D3
:10269000FF90EF90DF90CF90BF90AF909F908F9082
:1026A0007F906F905F904F903F902F900895CF92C2
:1026B000EF920F931F93CF93DF93EC016A3009F0F1
:1026C00070C08B819C81E0910502F0910602039617
:1026D0000995182F6A852F81621768F44B858A81C6
:1026E0008F3F11F03FEF01C030E0012F040FCE010A
:1026F000E32E0E94290F8985EB84212F30E0882367
:1027000041F5F901EE0FFF1F08859F012E0D311DC8
:10271000802F90E028173907C4F08C85882351F169
:102720006D814E812F818A818F3F11F03FEF01C073
:1027300030E0E394E01AEE0ECE01C32E0E944E125A
:102740008D818A878885811B2BC08D818A87E39440
:102750000BC04E818E2D90E0240F311D28173907B4
:1027600034F48D818A871095E10EEB861AC08C8532
:10277000882319F481E08C8714C06D812F8108852E
:102780008A818F3F11F03FEF01C030E0E394E41AFB
:10279000E10ECE01C32E0E9439118D818A878E8170
:1027A0008B87DF91CF911F910F91EF90CF9008957C
:1027B0002F923F924F925F926F927F928F929F9251
:1027C000AF92BF92CF92DF92EF92FF920F931F933F
:1027D000DF93CF93CDB7DEB76A970FB6F894DEBF1D
:1027E0000FBECDBF7C01062FDC0113968D919C910D
:1027F0001497009709F42DC2603220F4C7010E949B
:10280000571324C2E0910502F09106020396099540
:102810008E83F70183819481E0910502F091060295
:1028200004960995182FD70113968D919C911497B2
:10283000E0910502F091060205960995A82E011770
:1028400008F407C2202F30E0812F90E08A0D911DFF
:10285000281739070CF0FDC1FE81EF2FF0E0F98752
:10286000E887CF01079663E0959587956A95E1F72C
:10287000C82EB02EB11AE0910502F0910602D701E0
:1028800013968D919C9114970995882309F0FDC1A9
:10289000F70183819481E0910502F091060201968F
:1028A0000995882309F0F1C1D70113968D919C9168
:1028B0001497E0910502F0910602029609958F8324
:1028C000CB9C9001112490E0289F6001299FD00C9F
:1028D000389FD00C1124E6E0F0E0CE0EDF1E1D8202
:1028E00030C0C901880D991D0995080F111DD39499
:1028F0000894811C911CD70113962D913C9114973B
:10290000E0910502F0910602DB1458F38C2D90E063
:10291000AC01049FC001059F900D149F900D1124E0
:10292000CA2CDD2466E070E0C60ED71EC80ED91E84
:102930008B2D90E00696820F931F09958F8371E08F
:102940007D83D7011C968C91882331F0C7016AE002
:102950000E94D813F70114863F81232F30E03A8379
:102960002983D7011A968C911A97280F311D179633
:102970008C9190E0821793077CF4C7016AE00E9473
:10298000D813F7018485882339F0C7016AE00E94D3
:10299000D813D7011C961C92BE81BF5FBC83EA8608
:1029A000FB867724888599858770907058E0252E5E
:1029B000312C281A390AF6012F81E20FF11DFE8B06
:1029C000ED8B4B2F50E0588F4F8B34C1D7011B96A6
:1029D0006C901B97670C462D487F8A859B851A96BD
:1029E0006C910E94F90D872D86958695869590E0CD
:1029F000E981FA818E9FA0018F9F500D9E9F500DFF
:102A000011242A014C0C5D1C1B82272D30E0C901CA
:102A1000887F68857985681B790B7F876E87A62CF0
:102A2000BB24A22AB32A77E0A722BB24862D877075
:102A3000888BAD89BE89A40FB51FBA8BA98BEF898E
:102A4000F88DE21BF30BFC8BEB8BA4C0FE817F1691
:102A500010F010E01CC0D70113968D919C91149733
:102A6000E0910502F0910602840D951D0995182F3D
:102A7000BD81BB2361F0EE85FF85389744F490E07B
:102A8000022C02C0959587950A94E2F7182FD7017A
:102A900012968C91882309F41095A114B10441F485
:102AA000EB89FC89389724F08A859B85612F6AC061
:102AB0008A859B850E94310E982E0889872C29894A
:102AC0003A894B81240F311D3D872C87682D70E09A
:102AD0007A8F698F9B0127703070812F90E0022ED2
:102AE00002C0959587950A94E2F780FF0AC081E0BD
:102AF00090E0002E02C0880F991F0A94E2F7982AEE
:102B00000AC081E090E0002E02C0880F991F0A944D
:102B1000E2F7809598222730310549F5D7011396C1
:102B20008D919C911497E0910502F09106022C85FD
:102B30003D85820F931F0995182F3D81332389F01E
:102B400088859985498D5A8D841B950B08974CF47F
:102B5000812F90E0022C02C0959587950A94E2F7A8
:102B6000182FD70112968C91882309F410950F5FC6
:102B7000083029F08394BC818B1608F4A7CF8A858E
:102B80009B85692D0E94550EEB81EF5FEB830894C6
:102B9000411C511CFB812F81F21708F457CF062DE1
:102BA00010E0077010700115110531F48F89988DB0
:102BB00087199109089774F58A859B850E94310EC3
:102BC000282F0115110511F460E009C081E090E0A3
:102BD00002C0880F991F0A95E2F7682F61508F890C
:102BE000988D871991098830910554F441E050E09F
:102BF00002C0440F551F8A95E2F7CA018195682BE0
:102C0000D70112968C91882319F46095622B09C024
:102C1000622307C0F7018281882311F060E001C0C0
:102C20006FEF8A859B850E94550EF7E06F2288E042
:102C30008619780E2C81721608F4C8CED7011A9620
:102C40008C918F5FBF818B0FF701828721E030E08D
:102C500002C020E030E0C9016A960FB6F894DEBFEA
:102C60000FBECDBFCF91DF911F910F91FF90EF90DD
:102C7000DF90CF90BF90AF909F908F907F906F909C
:102C80005F904F903F902F90089500E010E0DD247A
:102C900046E0842E912C2FCE0E94D81308958F9257
:102CA0009F92AF92BF92CF92DF92EF92FF920F93DB
:102CB0001F93CF93DF93EC01162FD42EB22E470132
:102CC000AC2C0E94890D82EA91E099838883CE0121
:102CD000612F4D2D2B2D0E948310882391F4CE015E
:102CE00060E040E02FE70FE3EA2C0E945F109C8237
:102CF0008B8283EC9AE090930602809305028FEF1B
:102D00008A83DF91CF911F910F91FF90EF90DF9019
:102D1000CF90BF90AF909F908F900895EF920F93B8
:102D20001F938C010E94890D82EA91E0F801918342
:102D30008083C80160E040E02FE70FE3EE240E94AB
:102D40005F101F910F91EF900895EF920F931F93D3
:102D50008C010E94890D82EA91E0F80191838083C1
:102D6000C80160E040E02FE70FE3EE240E945F100F
:102D70001F910F91EF9008951F920F920FB60F922F
:102D800011242F933F938F939F93AF93BF93809181
:102D90000B0290910C02A0910D02B0910E023091A5
:102DA0000F020196A11DB11D232F2D5F2D3720F09D
:102DB0002D570196A11DB11D20930F0280930B0288
:102DC00090930C02A0930D02B0930E028091070223
:102DD00090910802A0910902B0910A020196A11DEA
:102DE000B11D8093070290930802A0930902B0934B
:102DF0000A02BF91AF919F918F913F912F910F90B8
:102E00000FBE0F901F9018958FB7F89420910B026A
:102E100030910C0240910D0250910E028FBFB9010A
:102E2000CA0108959B01AC017FB7F8948091070215
:102E300090910802A0910902B0910A0266B5A89B80
:102E400005C06F3F19F00196A11DB11D7FBFBA2FBC
:102E5000A92F982F8827860F911DA11DB11D62E013
:102E6000880F991FAA1FBB1F6A95D1F7BC012DC0FF
:102E7000FFB7F8948091070290910802A09109028F
:102E8000B0910A02E6B5A89B05C0EF3F19F0019684
:102E9000A11DB11DFFBFBA2FA92F982F88278E0F14
:102EA000911DA11DB11DE2E0880F991FAA1FBB1F34
:102EB000EA95D1F7861B970B885E9340C8F22150A4
:102EC00030404040504068517C4F2115310541054C
:102ED000510571F60895789484B5826084BD84B5F7
:102EE000816084BD85B5826085BD85B5816085BD05
:102EF000EEE6F0E0808181608083E1E8F0E010821E
:102F0000808182608083808181608083E0E8F0E05E
:102F1000808181608083E1EBF0E080818460808348
:102F2000E0EBF0E0808181608083EAE7F0E080817F
:102F300084608083808182608083808181608083DF
:102F40008081806880831092C10008950E946B1771
:102F50000E94A40A0E94B009FDCF0F931F93CF9344
:102F6000DF938C01EB0109C02196D801ED91FC9112
:102F70000190F081E02DC801099568816623A1F7D1
:102F8000DF91CF911F910F910895EF92FF920F93D0
:102F90001F93CF93DF938C017B01EA010CC0D70113
:102FA0006D917D01D801ED91FC910190F081E02DB2
:102FB000C80109952197209791F7DF91CF911F9133
:102FC0000F91FF90EF900895DC01ED91FC9102804C
:102FD000F381E02D099508952F923F924F925F92D1
:102FE0006F927F928F929F92AF92BF92CF92DF9219
:102FF000EF92FF920F931F93DF93CF93CDB7DEB77E
:10300000A0970FB6F894DEBF0FBECDBF1C016A01BA
:103010007B01411551056105710549F440E350E01C
:1030200060E070E020E030E00E94A61856C08824DE
:1030300099245401422E55246624772401E010E09F
:103040000C0F1D1F080D191DC701B601A301920128
:103050000E94351BF80160830894811C911CA11CFF
:10306000B11CC701B601A30192010E94351BC90121
:10307000DA016C017D01C114D104E104F104F1F61F
:1030800081E0E82EF12CEC0EFD1EE80CF91C3E014F
:103090000894611C711CD501C4010197A109B109F3
:1030A0006C01C818D90816C0F601EE0DFF1D40814D
:1030B0004A3010F4405D01C0495C552747FD5095EA
:1030C000652F752FC10120E030E00E94A6180894FA
:1030D000E108F1086E147F0439F7A0960FB6F89452
:1030E000DEBF0FBECDBFCF91DF911F910F91FF903B
:1030F000EF90DF90CF90BF90AF909F908F907F9098
:103100006F905F904F903F902F900895DC012115B4
:10311000310541F4ED91FC910190F081E02D642F97
:10312000099508950E94EC170895EF92FF920F936E
:103130001F939A017B0100E010E0B801A7010E94F3
:1031400086181F910F91FF90EF900895EF92FF92D4
:103150000F931F93CF93DF93EC017A018B0121151D
:10316000310541F4E881F9810190F081E02D642F6F
:1031700009951BC02A303105B1F477FF10C04DE22C
:1031800050E060E070E020E030E00E94A61810956A
:103190000095F094E094E11CF11C011D111DCE017D
:1031A000B801A7012AE00E94EC17DF91CF911F918F
:1031B0000F91FF90EF900895EF92FF920F931F935E
:1031C0007B019A010027F7FC0095102FB801A70199
:1031D0000E94A6181F910F91FF90EF900895EF9213
:1031E000FF920F931F93E62E9A01FF24E7FCF094C1
:1031F0000F2D1F2DB801A7010E94A6181F910F9136
:10320000FF90EF9008950F931F938C014DE050E0D5
:1032100060E070E020E030E00E94A618C8014AE0BB
:1032200050E060E070E020E030E00E94A6181F91BE
:103230000F9108950F931F938C010E94E417C8010A
:103240000E9403191F910F910895CF92DF92EF9280
:10325000FF920F931F938C016B019A01EE24D7FC10
:10326000E094FE2CB701A6010E94A618C8010E9496
:1032700003191F910F91FF90EF90DF90CF90089569
:103280005058BB27AA270ED0D7C097D030F09CD07B
:1032900020F031F49F3F11F41EF48CC00EF4E09541
:1032A000E7FB82C0E92FEAD080F3BA176207730701
:1032B0008407950718F071F49EF502C10EF4E095AD
:1032C0000B2EBA2FA02D0B01B90190010C01CA01E0
:1032D000A0011124FF27591B99F0593F50F4503E8B
:1032E00068F11A16F040A22F232F342F4427585F7D
:1032F000F3CF469537952795A795F0405395C9F795
:103300007EF41F16BA0B620B730B840BBAF091504C
:10331000A1F0FF0FBB1F661F771F881FC2F70EC0EB
:10332000BA0F621F731F841F48F4879577956795BE
:10333000B795F7959E3F08F0B3CF9395880F08F0A7
:103340009927EE0F97958795089546D0E39585C008
:103350009DD088F09F5790F0B92F9927B751A0F0D2
:10336000D1F0660F771F881F991F1AF0BA95C9F719
:1033700012C0B13081F0A4D0B1E00895A1C0672F90
:10338000782F8827B85F39F0B93FCCF386957795C9
:103390006795B395D9F73EF49095809570956195B2
:1033A0007F4F8F4F9F4F089597F99F6780E870E098
:1033B00060E008959FEF80EC089500240A941616AB
:1033C000170618060906089500240A941216130613
:1033D000140605060895EECF59D0E8F3E894EFEF10
:1033E000BB273FE048EC5FE76B3D73078407950719
:1033F00008F1FF279F57B25A6A4D7F40894CF04031
:1034000032F4BE556542704F8643FF4F0894EE1F5D
:10341000915030F0BB0F661F771F881FFF1FEBCF47
:103420009EE7882332F0BB0F661F771F881F9A958F
:10343000C1F79395E095B4C0092E0394000C11F4E4
:10344000882352F0BB0F40F4BF2B11F460FF04C07F
:103450006F5F7F4F8F4F9F4F0895EF93E0FF06C040
:10346000A2EA2AED3FE049EC5FEB1CDFE5DF0F90BD
:10347000039401FC9058E8E6F0E0A2C057FD905894
:10348000440F551F59F05F3F71F04795880F97FB28
:10349000991F61F09F3F79F08795089512161306E2
:1034A0001406551FF2CF4695F1DF08C01616170611
:1034B0001806991FF1CF8695710561050894089546
:1034C000E894BB2766277727CB0197F908950BD09F
:1034D000B3CF73DF28F078DF18F0952309F064CFBD
:1034E00069CF1124EECFCADFA0F3959FD1F3950FDA
:1034F00050E0551F629FF001729FBB27F00DB11D78
:10350000639FAA27F00DB11DAA1F649F6627B00D07
:10351000A11D661F829F2227B00DA11D621F739FF0
:10352000B00DA11D621F839FA00D611D221F749FFE
:103530003327A00D611D231F849F600D211D822F45
:10354000762F6A2F11249F5750408AF0E1F088238C
:103550004AF0EE0FFF1FBB1F661F771F881F915099
:103560005040A9F79E3F510570F01ECFAACF5F3F94
:10357000ECF3983EDCF3869577956795B795F795CC
:10358000E7959F5FC1F7FE2B880F911D9695879554
:1035900097F908959F9320DF0F9007FCEE5F5DCFB2
:1035A0009F3F49F0915028F4869577956795B79598
:1035B0009F5F80389F4F880F9695879597F908955C
:1035C0009F938F937F936F93FF93EF939B01AC0136
:1035D0007EDFEF91FF9105D02F913F914F915F9149
:1035E00076CFDF93CF931F930F93FF92EF92DF92EB
:1035F0007B018C01689405C0DA2EEF0174DFFE01B7
:10360000E894A5912591359145915591AEF3EF013F
:1036100049DEFE019701A801DA9479F7DF90EF9077
:10362000FF900F911F91CF91DF910895629FD0017C
:10363000739FF001829FE00DF11D649FE00DF11D6D
:10364000929FF00D839FF00D749FF00D659FF00D1C
:103650009927729FB00DE11DF91F639FB00DE11D09
:10366000F91FBD01CF0111240895A1E21A2EAA1B52
:10367000BB1BFD010DC0AA1FBB1FEE1FFF1FA21722
:10368000B307E407F50720F0A21BB30BE40BF50B1F
:10369000661F771F881F991F1A9469F760957095A8
:1036A000809590959B01AC01BD01CF010895EE0F6F
:0E36B000FF1F0590F491E02D0994F894FFCFD0
:1036BE006C696E652000204C696E65202000746573
:1036CE00787420617265610046756C6C00546F7081
:1036DE0000426F74746F6D005269676874004C65B8
:1036EE00667400546F70204C65667400546F7020C1
:1036FE00526967687400426F74204C6566740042AC
:10370E006F7420526967687400474C434420766595
:10371E007273696F6E200035783720666F6E743A5B
:10372E0000417269616C5F31343A00474C4344206A
:10373E00004650533D002E001400000000004C16B1
:10374E00AD17C517000000000510AD17C517000016
:08375E0000004C16AD17C51761
:00000001FF
