:100000000C9462000C948A000C948A000C948A0070
:100010000C948A000C948A000C948A000C948A0038
:100020000C948A000C948A000C948A000C948A0028
:100030000C948A000C948A000C948A000C948A0018
:100040000C9429010C948A000C9483020C948A006D
:100050000C948A000C948A000C948A000C948A00F8
:100060000C948A000C948A000000000024002700F1
:100070002A0000000000250028002B0000000000DE
:1000800023002600290004040404040404040202DA
:100090000202020203030303030301020408102007
:1000A0004080010204081020010204081020000012
:1000B0000007000201000003040600000000000029
:1000C00000007F0311241FBECFEFD8E0DEBFCDBFFD
:1000D00011E0A0E0B1E0ECE6FAE002C005900D927C
:1000E000A837B107D9F712E0A8E7B1E001C01D9227
:1000F000A932B107E1F710E0C4ECD0E004C02297C8
:10010000FE010E943005C23CD107C9F70E94B90325
:100110000C9434050C940000FB01DC018D910190DE
:1001200080190110D9F3990B08950F931F93CF9362
:10013000DF9386E192E00E94110340970CF461C0C6
:1001400008E711E0E80186E192E00E943C03899310
:1001500081E0C838D807B9F76097CE0160E071E058
:100160000E948C00009739F0CE0161E171E00E949D
:100170008C000097C9F586E192E062E271E00E948E
:10018000E6048DE061E00E942B028CE060E00E94BA
:100190002B0268EE73E080E090E00E9471018DE038
:1001A00061E00E942B028CE061E00E942B0260ED76
:1001B00077E080E090E00E9471018DE060E00E94B5
:1001C0002B028CE061E00E942B0268EE73E080E07D
:1001D00090E00E9471018DE061E00E942B028CE0B2
:1001E00061E00E942B0206C086E192E06CE271E0C1
:1001F0000E94E604F80111928F01F1E008381F0710
:10020000C9F7DF91CF911F910F9108950F931F931D
:1002100006E112E0C80140E855E260E070E00E94AB
:10022000B402C80168E371E00E94E6048DE061E079
:100230000E9405028CE061E00E9405028DE061E011
:100240000E942B028CE061E00E942B021F910F9113
:1002500008951F920F920FB60F9211242F933F9380
:100260008F939F93AF93BF9380918D0190918E0157
:10027000A0918F01B0919001309191010196A11D43
:10028000B11D232F2D5F2D3720F02D570196A11D75
:10029000B11D2093910180938D0190938E01A093C5
:1002A0008F01B09390018091890190918A01A09172
:1002B0008B01B0918C010196A11DB11D8093890124
:1002C00090938A01A0938B01B0938C01BF91AF9161
:1002D0009F918F913F912F910F900FBE0F901F9084
:1002E00018959B01AC017FB7F8948091890190919A
:1002F0008A01A0918B01B0918C0166B5A89B05C0C5
:100300006F3F19F00196A11DB11D7FBFBA2FA92F14
:10031000982F8827860F911DA11DB11D62E0880FBF
:10032000991FAA1FBB1F6A95D1F7BC012DC0FFB74B
:10033000F8948091890190918A01A0918B01B091EC
:100340008C01E6B5A89B05C0EF3F19F00196A11DF1
:10035000B11DFFBFBA2FA92F982F88278E0F911D8F
:10036000A11DB11DE2E0880F991FAA1FBB1FEA95CE
:10037000D1F7861B970B885E9340C8F2215030401E
:100380004040504068517C4F2115310541055105D1
:1003900071F60895789484B5826084BD84B58160D7
:1003A00084BD85B5826085BD85B5816085BDEEE67D
:1003B000F0E0808181608083E1E8F0E0108280815C
:1003C00082608083808181608083E0E8F0E08081CA
:1003D00081608083E1EBF0E0808184608083E0EBEA
:1003E000F0E0808181608083EAE7F0E080818460D2
:1003F000808380818260808380818160808380812E
:10040000806880831092C1000895482F50E0CA018F
:1004100086569F4FFC0124914A575F4FFA01849101
:100420008823C1F0E82FF0E0EE0FFF1FE859FF4FDF
:10043000A591B491662341F49FB7F8948C912095CF
:1004400082238C939FBF08959FB7F8948C91822B41
:100450008C939FBF0895482F50E0CA0182559F4F4B
:10046000FC012491CA0186569F4FFC0134914A57E2
:100470005F4FFA019491992309F444C0222351F16A
:10048000233071F0243028F42130A1F0223011F50E
:1004900014C02630B1F02730C1F02430D9F404C0A4
:1004A000809180008F7703C0809180008F7D809342
:1004B000800010C084B58F7702C084B58F7D84BD65
:1004C00009C08091B0008F7703C08091B0008F7D0C
:1004D0008093B000E92FF0E0EE0FFF1FEE58FF4FC2
:1004E000A591B491662341F49FB7F8948C9130950F
:1004F00083238C939FBF08959FB7F8948C91832B8F
:100500008C939FBF08951F920F920FB60F921124E4
:100510002F933F934F938F939F93EF93FF9340912C
:10052000C600E0911202F091130231969F012F77DD
:100530003070319780911402909115022817390775
:1005400039F0EE56FE4F408330931302209312028F
:10055000FF91EF919F918F914F913F912F910F902C
:100560000FBE0F901F901895CF93DF93EC019A0167
:10057000AB01E885F985203081EE380780E0480737
:1005800080E0580709F449C081E090E00A8802C081
:10059000880F991F0A94E2F7808360E079E08DE389
:1005A00090E00E9413052150304040405040CA0165
:1005B000B90122E030E040E050E00E941305EC81F8
:1005C000FD813083EE81FF812083EA85FB852081D8
:1005D00041E050E0CA010E8402C0880F991F0A94BE
:1005E000E2F7282B2083EA85FB852081CA010F844E
:1005F00002C0880F991F0A94E2F7282B2083EA850E
:10060000FB858081088802C0440F551F0A94E2F7D9
:10061000842B8083DF91CF910895108220E130E018
:10062000CECFDC011296ED91FC911397E058FF4F6D
:100630002191319180819181281B390B2F77307066
:10064000C9010895DC011296ED91FC911397EE57C4
:10065000FF4F2081318192918291E058F0408217C2
:10066000930719F42FEF3FEF05C0E20FF31F8081CE
:10067000282F30E0C9010895DC011296ED91FC911C
:100680001397DF01AE57BF4F2D913C911197E05862
:10069000FF4F80819181E058F0408217930719F451
:1006A0002FEF3FEF0BC0E20FF31F80812F5F3F4F13
:1006B0002F7730702D933C93282F30E0C901089597
:1006C000DC011296ED91FC911397EE57FF4F80815C
:1006D0009181929382930895FC01A085B18521892F
:1006E0008C9190E0022E02C0959587950A94E2F7CE
:1006F00080FFF6CF0484F585E02D6083089589E6B8
:1007000091E0909317028093160282E991E0909312
:1007100019028093180285EC90E090931B0280935D
:100720001A0284EC90E090931D0280931C0280ECEE
:1007300090E090931F0280931E0281EC90E09093D2
:1007400021028093200286EC90E090932302809314
:10075000220284E08093240283E08093250287E0D4
:100760008093260285E08093270281E0809328020F
:1007700008950E94CA010E9406010E949500FDCFC3
:100780000F931F93CF93DF938C01EB0109C0219648
:10079000D801ED91FC910190F081E02DC8010995FF
:1007A00068816623A1F7DF91CF911F910F91089582
:1007B000EF92FF920F931F93CF93DF938C017B01F6
:1007C000EA010CC0D7016D917D01D801ED91FC913A
:1007D0000190F081E02DC80109952197209791F7AC
:1007E000DF91CF911F910F91FF90EF900895DC0161
:1007F000ED91FC910280F381E02D099508952F92EF
:100800003F924F925F926F927F928F929F92AF92A0
:10081000BF92CF92DF92EF92FF920F931F93DF93DD
:10082000CF93CDB7DEB7A0970FB6F894DEBF0FBE5B
:10083000CDBF1C016A017B014115510561057105A0
:1008400049F440E350E060E070E020E030E00E94D6
:10085000990456C0882499245401422E55246624B4
:10086000772401E010E00C0F1D1F080D191DC701B2
:10087000B601A30192010E94F104F801608308947B
:10088000811C911CA11CB11CC701B601A3019201DE
:100890000E94F104C901DA016C017D01C114D10487
:1008A000E104F104F1F681E0E82EF12CEC0EFD1EDE
:1008B000E80CF91C3E010894611C711CD501C401AF
:1008C0000197A109B1096C01C818D90816C0F60131
:1008D000EE0DFF1D40814A3010F4405D01C0495CBF
:1008E000552747FD5095652F752FC10120E030E059
:1008F0000E9499040894E108F1086E147F0439F706
:10090000A0960FB6F894DEBF0FBECDBFCF91DF919A
:100910001F910F91FF90EF90DF90CF90BF90AF901D
:100920009F908F907F906F905F904F903F902F900F
:100930000895EF92FF920F931F93CF93DF93EC01F3
:100940007A018B012115310541F4E881F98101908B
:10095000F081E02D642F09951BC02A303105B1F4D8
:1009600077FF10C04DE250E060E070E020E030E042
:100970000E94990410950095F094E094E11CF11CFC
:10098000011D111DCE01B801A7012AE00E94FF033D
:10099000DF91CF911F910F91FF90EF9008950F93EA
:1009A0001F938C014DE050E060E070E020E030E00B
:1009B0000E949904C8014AE050E060E070E020E045
:1009C00030E00E9499041F910F9108950F931F9397
:1009D0008C010E94F703C8010E94CF041F910F9160
:1009E0000895A1E21A2EAA1BBB1BFD010DC0AA1F70
:1009F000BB1FEE1FFF1FA217B307E407F50720F088
:100A0000A21BB30BE40BF50B661F771F881F991F02
:100A10001A9469F760957095809590959B01AC014B
:100A2000BD01CF01089597FB092E05260ED057FD75
:100A300004D0D7DF0AD0001C38F45095409530958B
:100A400021953F4F4F4F5F4F0895F6F79095809552
:100A5000709561957F4F8F4F9F4F0895EE0FFF1F49
:0C0A60000590F491E02D0994F894FFCF6C
:100A6C003132333435363738393031323334353638
:100A7C00003938373635343332313039383736354A
:100A8C00340076616C69642063617200696E766112
:100A9C006C696420636172007374617274696E674F
:100AAC002074686520524620496420626173656435
:100ABC0020636172207061726B696E672070726F57
:100ACC006772616D00000000006C03C003D8031155
:080ADC00033C03220360030048
:00000001FF
